{
  "contractName": "A",
  "abi": [
    {
      "inputs": [],
      "name": "name",
      "outputs": [
        {
          "internalType": "string",
          "name": "",
          "type": "string"
        }
      ],
      "stateMutability": "view",
      "type": "function"
    },
    {
      "inputs": [],
      "name": "getName",
      "outputs": [
        {
          "internalType": "string",
          "name": "",
          "type": "string"
        }
      ],
      "stateMutability": "view",
      "type": "function"
    }
  ],
  "bytecode": "0x60806040526040518060400160405280600a81526020017f436f6e74726163742041000000000000000000000000000000000000000000008152506000908051906020019061004f929190610062565b5034801561005c57600080fd5b50610166565b82805461006e90610105565b90600052602060002090601f01602090048101928261009057600085556100d7565b82601f106100a957805160ff19168380011785556100d7565b828001600101855582156100d7579182015b828111156100d65782518255916020019190600101906100bb565b5b5090506100e491906100e8565b5090565b5b808211156101015760008160009055506001016100e9565b5090565b6000600282049050600182168061011d57607f821691505b6020821081141561013157610130610137565b5b50919050565b7f4e487b7100000000000000000000000000000000000000000000000000000000600052602260045260246000fd5b6102e9806101756000396000f3fe608060405234801561001057600080fd5b50600436106100365760003560e01c806306fdde031461003b57806317d7de7c14610059575b600080fd5b610043610077565b60405161005091906101d0565b60405180910390f35b610061610105565b60405161006e91906101d0565b60405180910390f35b6000805461008490610241565b80601f01602080910402602001604051908101604052809291908181526020018280546100b090610241565b80156100fd5780601f106100d2576101008083540402835291602001916100fd565b820191906000526020600020905b8154815290600101906020018083116100e057829003601f168201915b505050505081565b60606000805461011490610241565b80601f016020809104026020016040519081016040528092919081815260200182805461014090610241565b801561018d5780601f106101625761010080835404028352916020019161018d565b820191906000526020600020905b81548152906001019060200180831161017057829003601f168201915b5050505050905090565b60006101a2826101f2565b6101ac81856101fd565b93506101bc81856020860161020e565b6101c5816102a2565b840191505092915050565b600060208201905081810360008301526101ea8184610197565b905092915050565b600081519050919050565b600082825260208201905092915050565b60005b8381101561022c578082015181840152602081019050610211565b8381111561023b576000848401525b50505050565b6000600282049050600182168061025957607f821691505b6020821081141561026d5761026c610273565b5b50919050565b7f4e487b7100000000000000000000000000000000000000000000000000000000600052602260045260246000fd5b6000601f19601f830116905091905056fea26469706673582212202ebc4b95e0391239c07e4d1a18651685c187f14d2b9a1e35aacfad886eff589064736f6c63430008040033",
  "immutableReferences": {},
  "source": "// SPDX-License-Identifier: GPL-3.0\r\npragma solidity 0.8.4;\r\n\r\ncontract A {\r\n    string public name = \"Contract A\";\r\n\r\n    function getName() public view returns (string memory) {\r\n        return name;\r\n    }\r\n}\r\n\r\n// Shaddowing is disallowed in solidity 0.6\r\n// This will not complile\r\n//contract B is A{\r\n//string public name = \"contract B\";\r\n//}\r\n\r\ncontract C is A {\r\n    // this is the correct way to overide inherited state variables.\r\n    constructor() {\r\n        name = \"Contract C\";\r\n    }\r\n    //C.getName returns \"Contract C\"\r\n}\r\n",
  "sourcePath": "C:/Users/kelche codes/desktop/soliditybyexample/contracts/ShaddowingISV.sol",
  "compiler": {
    "name": "solc",
    "version": "0.8.4+commit.c7e474f2.Emscripten.clang"
  },
  "schemaVersion": "3.3.4",
  "updatedAt": "2021-05-04T11:22:21.224Z",
  "devdoc": {
    "kind": "dev",
    "methods": {},
    "version": 1
  },
  "userdoc": {
    "kind": "user",
    "methods": {},
    "version": 1
  }
}