{
  "contractName": "Array",
  "abi": [
    {
      "inputs": [
        {
          "internalType": "uint256",
          "name": "",
          "type": "uint256"
        }
      ],
      "name": "arr",
      "outputs": [
        {
          "internalType": "uint256",
          "name": "",
          "type": "uint256"
        }
      ],
      "stateMutability": "view",
      "type": "function",
      "constant": true
    },
    {
      "inputs": [
        {
          "internalType": "uint256",
          "name": "",
          "type": "uint256"
        }
      ],
      "name": "arr2",
      "outputs": [
        {
          "internalType": "uint256",
          "name": "",
          "type": "uint256"
        }
      ],
      "stateMutability": "view",
      "type": "function",
      "constant": true
    },
    {
      "inputs": [
        {
          "internalType": "uint256",
          "name": "",
          "type": "uint256"
        }
      ],
      "name": "myfixedSizedArr",
      "outputs": [
        {
          "internalType": "uint256",
          "name": "",
          "type": "uint256"
        }
      ],
      "stateMutability": "view",
      "type": "function",
      "constant": true
    },
    {
      "inputs": [
        {
          "internalType": "uint256",
          "name": "i",
          "type": "uint256"
        }
      ],
      "name": "get",
      "outputs": [
        {
          "internalType": "uint256",
          "name": "",
          "type": "uint256"
        }
      ],
      "stateMutability": "view",
      "type": "function",
      "constant": true
    },
    {
      "inputs": [],
      "name": "getArr",
      "outputs": [
        {
          "internalType": "uint256[]",
          "name": "",
          "type": "uint256[]"
        }
      ],
      "stateMutability": "view",
      "type": "function",
      "constant": true
    },
    {
      "inputs": [
        {
          "internalType": "uint256",
          "name": "i",
          "type": "uint256"
        }
      ],
      "name": "push",
      "outputs": [],
      "stateMutability": "nonpayable",
      "type": "function"
    },
    {
      "inputs": [],
      "name": "pop",
      "outputs": [],
      "stateMutability": "nonpayable",
      "type": "function"
    },
    {
      "inputs": [],
      "name": "getLength",
      "outputs": [
        {
          "internalType": "uint256",
          "name": "",
          "type": "uint256"
        }
      ],
      "stateMutability": "view",
      "type": "function",
      "constant": true
    },
    {
      "inputs": [
        {
          "internalType": "uint256",
          "name": "index",
          "type": "uint256"
        }
      ],
      "name": "remove",
      "outputs": [],
      "stateMutability": "nonpayable",
      "type": "function"
    }
  ],
  "bytecode": "0x60806040526040518060600160405280600160ff168152602001600260ff168152602001600360ff16815250600190600361003b92919061004e565b5034801561004857600080fd5b506100bd565b82805482825590600052602060002090810192821561008f579160200282015b8281111561008e578251829060ff1690559160200191906001019061006e565b5b50905061009c91906100a0565b5090565b5b808211156100b95760008160009055506001016100a1565b5090565b610550806100cc6000396000f3fe608060405234801561001057600080fd5b50600436106100935760003560e01c8063959ac48411610066578063959ac48414610144578063a4ece52c14610160578063be1c766b1461016a578063edf0099b14610188578063fb8cbced146101b857610093565b80634cc822151461009857806371e5ee5f146100b45780637348de9f146100e45780639507d39a14610114575b600080fd5b6100b260048036038101906100ad91906103c6565b6101d6565b005b6100ce60048036038101906100c991906103c6565b610221565b6040516100db91906104a5565b60405180910390f35b6100fe60048036038101906100f991906103c6565b610245565b60405161010b91906104a5565b60405180910390f35b61012e600480360381019061012991906103c6565b610260565b60405161013b91906104a5565b60405180910390f35b61015e600480360381019061015991906103c6565b6102ad565b005b6101686102d9565b005b610172610329565b60405161017f91906104a5565b60405180910390f35b6101a2600480360381019061019d91906103c6565b610335565b6040516101af91906104a5565b60405180910390f35b6101c0610359565b6040516101cd9190610483565b60405180910390f35b60008181548110610210577f4e487b7100000000000000000000000000000000000000000000000000000000600052603260045260246000fd5b906000526020600020016000905550565b6000818154811061023157600080fd5b906000526020600020016000915090505481565b600281600a811061025557600080fd5b016000915090505481565b600080828154811061029b577f4e487b7100000000000000000000000000000000000000000000000000000000600052603260045260246000fd5b90600052602060002001549050919050565b600081908060018154018082558091505060019003906000526020600020016000909190919091505550565b6000805480610311577f4e487b7100000000000000000000000000000000000000000000000000000000600052603160045260246000fd5b60019003818190600052602060002001600090559055565b60008080549050905090565b6001818154811061034557600080fd5b906000526020600020016000915090505481565b606060008054806020026020016040519081016040528092919081815260200182805480156103a757602002820191906000526020600020905b815481526020019060010190808311610393575b5050505050905090565b6000813590506103c081610503565b92915050565b6000602082840312156103d857600080fd5b60006103e6848285016103b1565b91505092915050565b60006103fb8383610465565b60208301905092915050565b6000610412826104d0565b61041c81856104e8565b9350610427836104c0565b8060005b8381101561045857815161043f88826103ef565b975061044a836104db565b92505060018101905061042b565b5085935050505092915050565b61046e816104f9565b82525050565b61047d816104f9565b82525050565b6000602082019050818103600083015261049d8184610407565b905092915050565b60006020820190506104ba6000830184610474565b92915050565b6000819050602082019050919050565b600081519050919050565b6000602082019050919050565b600082825260208201905092915050565b6000819050919050565b61050c816104f9565b811461051757600080fd5b5056fea26469706673582212204309b836b5bd624b15f3cf397a19312439e7a54d903277e1f7fa01eb038470b464736f6c63430008040033",
  "immutableReferences": {},
  "source": "// SPDX-License-Identifier: GPL-3.0\r\npragma solidity ^0.8.4;\r\n\r\ncontract Array {\r\n    //several ways to initialize an array\r\n    uint256[] public arr;\r\n    uint256[] public arr2 = [1, 2, 3];\r\n\r\n    //fixed size array\r\n    uint256[10] public myfixedSizedArr;\r\n\r\n    function get(uint256 i) public view returns (uint256) {\r\n        return arr[i];\r\n    }\r\n\r\n    //Solidity can return an entire array\r\n    // but this function should be avoided for\r\n    // arrays that can grow indefinitely in length\r\n    function getArr() public view returns (uint256[] memory) {\r\n        return arr;\r\n    }\r\n\r\n    function push(uint256 i) public {\r\n        //append to array\r\n        // This will increase the array length by one\r\n        arr.push(i);\r\n    }\r\n\r\n    function pop() public {\r\n        //removelast element from array\r\n        // this will decrease the array length by one\r\n        arr.pop();\r\n    }\r\n\r\n    function getLength() public view returns (uint256) {\r\n        return arr.length;\r\n    }\r\n\r\n    function remove(uint256 index) public {\r\n        // delete does not change the array length.\r\n        //it resets the value to its default value,\r\n        // in this casee 0\r\n        delete arr[index];\r\n    }\r\n}\r\n\r\ncontract CompactArray {\r\n    uint256[] public arr;\r\n\r\n    // deleting an element creates a gap in the array.\r\n    // one trick to keep the array compact is to\r\n    // move the last element into the place delete\r\n\r\n    function remove(uint256 index) public {\r\n        // move the last element into the place to delete\r\n        arr[index] = arr[arr.length - 1];\r\n\r\n        // remove the last element\r\n\r\n        arr.pop();\r\n    }\r\n\r\n    function test() public {\r\n        arr.push(1);\r\n        arr.push(2);\r\n        arr.push(3);\r\n        arr.push(4);\r\n\r\n        remove(1);\r\n        remove(2);\r\n    }\r\n}\r\n",
  "sourcePath": "C:/Users/kelche codes/desktop/soliditybyexample/contracts/Array.sol",
  "compiler": {
    "name": "solc",
    "version": "0.8.4+commit.c7e474f2.Emscripten.clang"
  },
  "schemaVersion": "3.3.4",
  "updatedAt": "2021-05-04T11:22:39.030Z",
  "networkType": "ethereum",
  "devdoc": {
    "kind": "dev",
    "methods": {},
    "version": 1
  },
  "userdoc": {
    "kind": "user",
    "methods": {},
    "version": 1
  }
}