{
  "contractName": "C",
  "abi": [
    {
      "inputs": [
        {
          "internalType": "string",
          "name": "_name",
          "type": "string"
        },
        {
          "internalType": "string",
          "name": "_text",
          "type": "string"
        }
      ],
      "stateMutability": "nonpayable",
      "type": "constructor"
    },
    {
      "inputs": [],
      "name": "name",
      "outputs": [
        {
          "internalType": "string",
          "name": "",
          "type": "string"
        }
      ],
      "stateMutability": "view",
      "type": "function"
    },
    {
      "inputs": [],
      "name": "text",
      "outputs": [
        {
          "internalType": "string",
          "name": "",
          "type": "string"
        }
      ],
      "stateMutability": "view",
      "type": "function"
    }
  ],
  "bytecode": "0x608060405234801561001057600080fd5b5060405161063138038061063183398181016040528101906100329190610176565b8082806000908051906020019061004a92919061006b565b5050806001908051906020019061006292919061006b565b5050505061033d565b8280546100779061026b565b90600052602060002090601f01602090048101928261009957600085556100e0565b82601f106100b257805160ff19168380011785556100e0565b828001600101855582156100e0579182015b828111156100df5782518255916020019190600101906100c4565b5b5090506100ed91906100f1565b5090565b5b8082111561010a5760008160009055506001016100f2565b5090565b600061012161011c84610207565b6101e2565b90508281526020810184848401111561013957600080fd5b610144848285610238565b509392505050565b600082601f83011261015d57600080fd5b815161016d84826020860161010e565b91505092915050565b6000806040838503121561018957600080fd5b600083015167ffffffffffffffff8111156101a357600080fd5b6101af8582860161014c565b925050602083015167ffffffffffffffff8111156101cc57600080fd5b6101d88582860161014c565b9150509250929050565b60006101ec6101fd565b90506101f8828261029d565b919050565b6000604051905090565b600067ffffffffffffffff821115610222576102216102fd565b5b61022b8261032c565b9050602081019050919050565b60005b8381101561025657808201518184015260208101905061023b565b83811115610265576000848401525b50505050565b6000600282049050600182168061028357607f821691505b60208210811415610297576102966102ce565b5b50919050565b6102a68261032c565b810181811067ffffffffffffffff821117156102c5576102c46102fd565b5b80604052505050565b7f4e487b7100000000000000000000000000000000000000000000000000000000600052602260045260246000fd5b7f4e487b7100000000000000000000000000000000000000000000000000000000600052604160045260246000fd5b6000601f19601f8301169050919050565b6102e58061034c6000396000f3fe608060405234801561001057600080fd5b50600436106100365760003560e01c806306fdde031461003b5780631f1bd69214610059575b600080fd5b610043610077565b60405161005091906101cc565b60405180910390f35b610061610105565b60405161006e91906101cc565b60405180910390f35b600080546100849061023d565b80601f01602080910402602001604051908101604052809291908181526020018280546100b09061023d565b80156100fd5780601f106100d2576101008083540402835291602001916100fd565b820191906000526020600020905b8154815290600101906020018083116100e057829003601f168201915b505050505081565b600180546101129061023d565b80601f016020809104026020016040519081016040528092919081815260200182805461013e9061023d565b801561018b5780601f106101605761010080835404028352916020019161018b565b820191906000526020600020905b81548152906001019060200180831161016e57829003601f168201915b505050505081565b600061019e826101ee565b6101a881856101f9565b93506101b881856020860161020a565b6101c18161029e565b840191505092915050565b600060208201905081810360008301526101e68184610193565b905092915050565b600081519050919050565b600082825260208201905092915050565b60005b8381101561022857808201518184015260208101905061020d565b83811115610237576000848401525b50505050565b6000600282049050600182168061025557607f821691505b602082108114156102695761026861026f565b5b50919050565b7f4e487b7100000000000000000000000000000000000000000000000000000000600052602260045260246000fd5b6000601f19601f830116905091905056fea2646970667358221220d32bb82ee63116b0d8dd5bbaee27f412198e46b4c1469cb6fb50b967d49beb2664736f6c63430008040033",
  "immutableReferences": {},
  "source": "//SPDX-License-Identifier: GPL-3.0\r\npragma solidity ^0.8.4;\r\n\r\n// Base contract X\r\ncontract X {\r\n    string public name;\r\n\r\n    constructor(string memory _name) {\r\n        name = _name;\r\n    }\r\n}\r\n\r\n// Base contract Y\r\n\r\ncontract Y {\r\n    string public text;\r\n\r\n    constructor(string memory _text) {\r\n        text = _text;\r\n    }\r\n}\r\n\r\n// there are two ways to initialize the parent contract with parameters\r\n// pass the parameters here in the inheritancelist\r\n\r\ncontract B is X(\"Input to X\"), Y(\"Input to Y\") {\r\n\r\n}\r\n\r\ncontract C is X, Y {\r\n    // pass the parameters here in the constructor,\r\n    // similar to function modifiers\r\n    constructor(string memory _name, string memory _text) X(_name) Y(_text) {}\r\n}\r\n\r\n//parent constructors are always called in the order of inheritance\r\n// regardless of the order of parent contracts listed in the\r\n// constructor of the child contract\r\n\r\n// order of constructors called\r\n//1. Y\r\n//2. X\r\n//3. E\r\n\r\ncontract E is X, Y {\r\n    constructor() X(\"X was called\") Y(\"Y was called\") {}\r\n}\r\n",
  "sourcePath": "C:/Users/kelche codes/desktop/SolidityByExample/contracts/Constructor.sol",
  "compiler": {
    "name": "solc",
    "version": "0.8.4+commit.c7e474f2.Emscripten.clang"
  },
  "schemaVersion": "3.3.4",
  "updatedAt": "2021-04-30T13:27:42.636Z",
  "devdoc": {
    "kind": "dev",
    "methods": {},
    "version": 1
  },
  "userdoc": {
    "kind": "user",
    "methods": {},
    "version": 1
  }
}