{
  "contractName": "Caller",
  "abi": [
    {
      "anonymous": false,
      "inputs": [
        {
          "indexed": false,
          "internalType": "bool",
          "name": "success",
          "type": "bool"
        },
        {
          "indexed": false,
          "internalType": "bytes",
          "name": "data",
          "type": "bytes"
        }
      ],
      "name": "Response",
      "type": "event"
    },
    {
      "inputs": [
        {
          "internalType": "address payable",
          "name": "_addr",
          "type": "address"
        }
      ],
      "name": "testCallFoo",
      "outputs": [],
      "stateMutability": "payable",
      "type": "function",
      "payable": true
    },
    {
      "inputs": [
        {
          "internalType": "address",
          "name": "_addr",
          "type": "address"
        }
      ],
      "name": "testCallDoesNotEXist",
      "outputs": [],
      "stateMutability": "nonpayable",
      "type": "function"
    }
  ],
  "bytecode": "0x608060405234801561001057600080fd5b506105f7806100206000396000f3fe6080604052600436106100295760003560e01c806367eb52551461002e57806387ba617914610057575b600080fd5b34801561003a57600080fd5b506100556004803603810190610050919061030d565b610073565b005b610071600480360381019061006c9190610336565b6101a2565b005b6000808273ffffffffffffffffffffffffffffffffffffffff166040516024016040516020818303038152906040527f1dcc85ae000000000000000000000000000000000000000000000000000000007bffffffffffffffffffffffffffffffffffffffffffffffffffffffff19166020820180517bffffffffffffffffffffffffffffffffffffffffffffffffffffffff838183161783525050505060405161011d919061040a565b6000604051808303816000865af19150503d806000811461015a576040519150601f19603f3d011682016040523d82523d6000602084013e61015f565b606091505b50915091507f13848c3e38f8886f3f5d2ad9dff80d8092c2bbb8efd5b887a99c2c6cfc09ac2a8282604051610195929190610421565b60405180910390a1505050565b6000808273ffffffffffffffffffffffffffffffffffffffff163461138890607b6040516024016101d39190610451565b6040516020818303038152906040527f2fae309d000000000000000000000000000000000000000000000000000000007bffffffffffffffffffffffffffffffffffffffffffffffffffffffff19166020820180517bffffffffffffffffffffffffffffffffffffffffffffffffffffffff838183161783525050505060405161025d919061040a565b600060405180830381858888f193505050503d806000811461029b576040519150601f19603f3d011682016040523d82523d6000602084013e6102a0565b606091505b50915091507f13848c3e38f8886f3f5d2ad9dff80d8092c2bbb8efd5b887a99c2c6cfc09ac2a82826040516102d6929190610421565b60405180910390a1505050565b6000813590506102f281610593565b92915050565b600081359050610307816105aa565b92915050565b60006020828403121561031f57600080fd5b600061032d848285016102e3565b91505092915050565b60006020828403121561034857600080fd5b6000610356848285016102f8565b91505092915050565b610368816104db565b82525050565b60006103798261047f565b610383818561048a565b9350610393818560208601610526565b61039c81610559565b840191505092915050565b60006103b28261047f565b6103bc818561049b565b93506103cc818560208601610526565b80840191505092915050565b6103e181610514565b82525050565b60006103f46008836104a6565b91506103ff8261056a565b602082019050919050565b600061041682846103a7565b915081905092915050565b6000604082019050610436600083018561035f565b8181036020830152610448818461036e565b90509392505050565b6000604082019050818103600083015261046a816103e7565b905061047960208301846103d8565b92915050565b600081519050919050565b600082825260208201905092915050565b600081905092915050565b600082825260208201905092915050565b60006104c2826104e7565b9050919050565b60006104d4826104e7565b9050919050565b60008115159050919050565b600073ffffffffffffffffffffffffffffffffffffffff82169050919050565b600060ff82169050919050565b600061051f82610507565b9050919050565b60005b83811015610544578082015181840152602081019050610529565b83811115610553576000848401525b50505050565b6000601f19601f8301169050919050565b7f63616c6c20666f6f000000000000000000000000000000000000000000000000600082015250565b61059c816104b7565b81146105a757600080fd5b50565b6105b3816104c9565b81146105be57600080fd5b5056fea26469706673582212201e368fbe3c5521a34a019a4d7748dc9caae9593f1db00623dc56af369f28949064736f6c63430008040033",
  "immutableReferences": {},
  "source": "// SPDX-License-Identifier: MIT\r\npragma solidity 0.8.4;\r\n\r\ncontract receiver {\r\n    event Received(address caller, uint256 amount, string message);\r\n\r\n    receive() external payable {\r\n        emit Received(msg.sender, msg.value, \"Fallback was called\");\r\n    }\r\n\r\n    function foo(string memory _message, uint256 _x)\r\n        public\r\n        payable\r\n        returns (uint256)\r\n    {\r\n        emit Received(msg.sender, msg.value, _message);\r\n        return _x + 1;\r\n    }\r\n}\r\n\r\ncontract Caller {\r\n    event Response(bool success, bytes data);\r\n\r\n    // Let's Imagine that contract Ba does not have source code for\r\n    // Contract A, but we do know the address of A and the function to call.\r\n    function testCallFoo(address payable _addr) public payable {\r\n        // You cab send ether and specify a custom gas amount\r\n\r\n        (bool success, bytes memory data) =\r\n            _addr.call{value: msg.value, gas: 5000}(\r\n                abi.encodeWithSignature(\"foo(string, uint256)\", \"call foo\", 123)\r\n            );\r\n        emit Response(success, data);\r\n    }\r\n\r\n    // Calling a function that does not exist trigggers the fallback function.\r\n    function testCallDoesNotEXist(address _addr) public {\r\n        (bool success, bytes memory data) =\r\n            _addr.call(abi.encodeWithSignature(\"doesNotExist()\"));\r\n        emit Response(success, data);\r\n    }\r\n}\r\n",
  "sourcePath": "C:/Users/kelche codes/desktop/soliditybyexample/contracts/Call.sol",
  "compiler": {
    "name": "solc",
    "version": "0.8.4+commit.c7e474f2.Emscripten.clang"
  },
  "schemaVersion": "3.3.4",
  "updatedAt": "2021-05-04T11:22:39.152Z",
  "networkType": "ethereum",
  "devdoc": {
    "kind": "dev",
    "methods": {},
    "version": 1
  },
  "userdoc": {
    "kind": "user",
    "methods": {},
    "version": 1
  }
}