{
  "contractName": "CompactArray",
  "abi": [
    {
      "inputs": [
        {
          "internalType": "uint256",
          "name": "",
          "type": "uint256"
        }
      ],
      "name": "arr",
      "outputs": [
        {
          "internalType": "uint256",
          "name": "",
          "type": "uint256"
        }
      ],
      "stateMutability": "view",
      "type": "function"
    },
    {
      "inputs": [
        {
          "internalType": "uint256",
          "name": "index",
          "type": "uint256"
        }
      ],
      "name": "remove",
      "outputs": [],
      "stateMutability": "nonpayable",
      "type": "function"
    },
    {
      "inputs": [],
      "name": "test",
      "outputs": [],
      "stateMutability": "nonpayable",
      "type": "function"
    }
  ],
  "bytecode": "0x608060405234801561001057600080fd5b5061038f806100206000396000f3fe608060405234801561001057600080fd5b50600436106100415760003560e01c80634cc822151461004657806371e5ee5f14610062578063f8a8fd6d14610092575b600080fd5b610060600480360381019061005b9190610282565b61009c565b005b61007c60048036038101906100779190610282565b61018b565b60405161008991906102ba565b60405180910390f35b61009a6101af565b005b600060016000805490506100b091906102d5565b815481106100e7577f4e487b7100000000000000000000000000000000000000000000000000000000600052603260045260246000fd5b90600052602060002001546000828154811061012c577f4e487b7100000000000000000000000000000000000000000000000000000000600052603260045260246000fd5b90600052602060002001819055506000805480610172577f4e487b7100000000000000000000000000000000000000000000000000000000600052603160045260246000fd5b6001900381819060005260206000200160009055905550565b6000818154811061019b57600080fd5b906000526020600020016000915090505481565b600060019080600181540180825580915050600190039060005260206000200160009091909190915055600060029080600181540180825580915050600190039060005260206000200160009091909190915055600060039080600181540180825580915050600190039060005260206000200160009091909190915055600060049080600181540180825580915050600190039060005260206000200160009091909190915055610261600161009c565b61026b600261009c565b565b60008135905061027c81610342565b92915050565b60006020828403121561029457600080fd5b60006102a28482850161026d565b91505092915050565b6102b481610309565b82525050565b60006020820190506102cf60008301846102ab565b92915050565b60006102e082610309565b91506102eb83610309565b9250828210156102fe576102fd610313565b5b828203905092915050565b6000819050919050565b7f4e487b7100000000000000000000000000000000000000000000000000000000600052601160045260246000fd5b61034b81610309565b811461035657600080fd5b5056fea2646970667358221220856a1926656dd7732c7ab895bae69b32c7cab9de94c65f886353423a3997ee7a64736f6c63430008040033",
  "immutableReferences": {},
  "source": "// SPDX-License-Identifier: GPL-3.0\r\npragma solidity ^0.8.4;\r\n\r\ncontract Array {\r\n    //several ways to initialize an array\r\n    uint256[] public arr;\r\n    uint256[] public arr2 = [1, 2, 3];\r\n\r\n    //fixed size array\r\n    uint256[10] public myfixedSizedArr;\r\n\r\n    function get(uint256 i) public view returns (uint256) {\r\n        return arr[i];\r\n    }\r\n\r\n    //Solidity can return an entire array\r\n    // but this function should be avoided for\r\n    // arrays that can grow indefinitely in length\r\n    function getArr() public view returns (uint256[] memory) {\r\n        return arr;\r\n    }\r\n\r\n    function push(uint256 i) public {\r\n        //append to array\r\n        // This will increase the array length by one\r\n        arr.push(i);\r\n    }\r\n\r\n    function pop() public {\r\n        //removelast element from array\r\n        // this will decrease the array length by one\r\n        arr.pop();\r\n    }\r\n\r\n    function getLength() public view returns (uint256) {\r\n        return arr.length;\r\n    }\r\n\r\n    function remove(uint256 index) public {\r\n        // delete does not change the array length.\r\n        //it resets the value to its default value,\r\n        // in this casee 0\r\n        delete arr[index];\r\n    }\r\n}\r\n\r\ncontract CompactArray {\r\n    uint256[] public arr;\r\n\r\n    // deleting an element creates a gap in the array.\r\n    // one trick to keep the array compact is to\r\n    // move the last element into the place delete\r\n\r\n    function remove(uint256 index) public {\r\n        // move the last element into the place to delete\r\n        arr[index] = arr[arr.length - 1];\r\n\r\n        // remove the last element\r\n\r\n        arr.pop();\r\n    }\r\n\r\n    function test() public {\r\n        arr.push(1);\r\n        arr.push(2);\r\n        arr.push(3);\r\n        arr.push(4);\r\n\r\n        remove(1);\r\n        remove(2);\r\n    }\r\n}\r\n",
  "sourcePath": "C:/Users/kelche codes/desktop/soliditybyexample/contracts/Array.sol",
  "compiler": {
    "name": "solc",
    "version": "0.8.4+commit.c7e474f2.Emscripten.clang"
  },
  "schemaVersion": "3.3.4",
  "updatedAt": "2021-05-04T11:22:21.050Z",
  "devdoc": {
    "kind": "dev",
    "methods": {},
    "version": 1
  },
  "userdoc": {
    "kind": "user",
    "methods": {},
    "version": 1
  }
}