{
  "contractName": "DataLocations",
  "abi": [
    {
      "inputs": [
        {
          "internalType": "uint256",
          "name": "",
          "type": "uint256"
        }
      ],
      "name": "arr",
      "outputs": [
        {
          "internalType": "uint256",
          "name": "",
          "type": "uint256"
        }
      ],
      "stateMutability": "view",
      "type": "function"
    },
    {
      "inputs": [],
      "name": "f",
      "outputs": [],
      "stateMutability": "nonpayable",
      "type": "function"
    },
    {
      "inputs": [
        {
          "internalType": "uint256[]",
          "name": "arr",
          "type": "uint256[]"
        }
      ],
      "name": "g",
      "outputs": [
        {
          "internalType": "uint256[]",
          "name": "",
          "type": "uint256[]"
        }
      ],
      "stateMutability": "nonpayable",
      "type": "function"
    },
    {
      "inputs": [
        {
          "internalType": "uint256[]",
          "name": "_Arr",
          "type": "uint256[]"
        }
      ],
      "name": "h",
      "outputs": [],
      "stateMutability": "nonpayable",
      "type": "function"
    }
  ],
  "bytecode": "0x608060405234801561001057600080fd5b50610522806100206000396000f3fe608060405234801561001057600080fd5b506004361061004c5760003560e01c806326121ff01461005157806340dcbb081461005b57806371e5ee5f14610077578063baf71609146100a7575b600080fd5b6100596100d7565b005b61007560048036038101906100709190610250565b610127565b005b610091600480360381019061008c91906102d6565b61012b565b60405161009e91906103b5565b60405180910390f35b6100c160048036038101906100bc9190610295565b61014f565b6040516100ce9190610393565b60405180910390f35b6100f7600060016002600060018152602001908152602001600020610156565b60006002600060018152602001908152602001600020905060006040518060200160405280600081525090505050565b5050565b6000818154811061013b57600080fd5b906000526020600020016000915090505481565b6060919050565b505050565b600061016e610169846103f5565b6103d0565b9050808382526020820190508285602086028201111561018d57600080fd5b60005b858110156101bd57816101a3888261023b565b845260208401935060208301925050600181019050610190565b5050509392505050565b60008083601f8401126101d957600080fd5b8235905067ffffffffffffffff8111156101f257600080fd5b60208301915083602082028301111561020a57600080fd5b9250929050565b600082601f83011261022257600080fd5b813561023284826020860161015b565b91505092915050565b60008135905061024a816104d5565b92915050565b6000806020838503121561026357600080fd5b600083013567ffffffffffffffff81111561027d57600080fd5b610289858286016101c7565b92509250509250929050565b6000602082840312156102a757600080fd5b600082013567ffffffffffffffff8111156102c157600080fd5b6102cd84828501610211565b91505092915050565b6000602082840312156102e857600080fd5b60006102f68482850161023b565b91505092915050565b600061030b8383610375565b60208301905092915050565b600061032282610431565b61032c8185610449565b935061033783610421565b8060005b8381101561036857815161034f88826102ff565b975061035a8361043c565b92505060018101905061033b565b5085935050505092915050565b61037e8161045a565b82525050565b61038d8161045a565b82525050565b600060208201905081810360008301526103ad8184610317565b905092915050565b60006020820190506103ca6000830184610384565b92915050565b60006103da6103eb565b90506103e68282610464565b919050565b6000604051905090565b600067ffffffffffffffff8211156104105761040f610495565b5b602082029050602081019050919050565b6000819050602082019050919050565b600081519050919050565b6000602082019050919050565b600082825260208201905092915050565b6000819050919050565b61046d826104c4565b810181811067ffffffffffffffff8211171561048c5761048b610495565b5b80604052505050565b7f4e487b7100000000000000000000000000000000000000000000000000000000600052604160045260246000fd5b6000601f19601f8301169050919050565b6104de8161045a565b81146104e957600080fd5b5056fea2646970667358221220d93ee48d4743a9436f382c3fa6e7ede7085ffc01d306747adabb062d5a988a0e64736f6c63430008040033",
  "immutableReferences": {},
  "source": "// SPDX-License-Identifier: MIT\r\npragma solidity ^0.8.4;\r\n\r\ncontract DataLocations {\r\n    uint256[] public arr;\r\n    mapping(uint256 => address) map;\r\n    struct MyStruct {\r\n        uint256 foo;\r\n    }\r\n    mapping(uint256 => MyStruct) myStructs;\r\n\r\n    function f() public {\r\n        // call _f with state variables\r\n        _f(arr, map, myStructs[1]);\r\n\r\n        // get a struct from a mapping\r\n        MyStruct storage myStruct = myStructs[1];\r\n        // create a struct in memory\r\n        MyStruct memory myMemStruct = MyStruct(0);\r\n    }\r\n\r\n    function _f(\r\n        uint256[] storage _arr,\r\n        mapping(uint256 => address) storage _map,\r\n        MyStruct storage _myStruct\r\n    ) internal {\r\n        // do something with storage variables\r\n    }\r\n\r\n    // you can return memory variables\r\n    function g(uint256[] memory arr) public returns (uint256[] memory) {\r\n        // do something with memory array\r\n    }\r\n\r\n    function h(uint256[] calldata _Arr) external {\r\n        //do spmething with calldata array\r\n    }\r\n}\r\n",
  "sourcePath": "C:/Users/kelche codes/desktop/SolidityByExample/contracts/DataLocations.sol",
  "compiler": {
    "name": "solc",
    "version": "0.8.4+commit.c7e474f2.Emscripten.clang"
  },
  "schemaVersion": "3.3.4",
  "updatedAt": "2021-04-29T13:37:19.820Z",
  "devdoc": {
    "kind": "dev",
    "methods": {},
    "version": 1
  },
  "userdoc": {
    "kind": "user",
    "methods": {},
    "version": 1
  }
}