{
  "contractName": "DC1",
  "abi": [
    {
      "inputs": [],
      "name": "num",
      "outputs": [
        {
          "internalType": "uint256",
          "name": "",
          "type": "uint256"
        }
      ],
      "stateMutability": "view",
      "type": "function",
      "constant": true
    },
    {
      "inputs": [],
      "name": "sender",
      "outputs": [
        {
          "internalType": "address",
          "name": "",
          "type": "address"
        }
      ],
      "stateMutability": "view",
      "type": "function",
      "constant": true
    },
    {
      "inputs": [],
      "name": "value",
      "outputs": [
        {
          "internalType": "uint256",
          "name": "",
          "type": "uint256"
        }
      ],
      "stateMutability": "view",
      "type": "function",
      "constant": true
    },
    {
      "inputs": [
        {
          "internalType": "uint256",
          "name": "_num",
          "type": "uint256"
        }
      ],
      "name": "setVars",
      "outputs": [],
      "stateMutability": "payable",
      "type": "function",
      "payable": true
    }
  ],
  "bytecode": "0x608060405234801561001057600080fd5b50610280806100206000396000f3fe60806040526004361061003f5760003560e01c80633fa4f245146100445780634e70b1dc1461006f5780636466414b1461009a57806367e404ce146100b6575b600080fd5b34801561005057600080fd5b506100596100e1565b60405161006691906101dc565b60405180910390f35b34801561007b57600080fd5b506100846100e7565b60405161009191906101dc565b60405180910390f35b6100b460048036038101906100af919061017a565b6100ed565b005b3480156100c257600080fd5b506100cb61013f565b6040516100d891906101c1565b60405180910390f35b60025481565b60005481565b8060008190555033600160006101000a81548173ffffffffffffffffffffffffffffffffffffffff021916908373ffffffffffffffffffffffffffffffffffffffff1602179055503460028190555050565b600160009054906101000a900473ffffffffffffffffffffffffffffffffffffffff1681565b60008135905061017481610233565b92915050565b60006020828403121561018c57600080fd5b600061019a84828501610165565b91505092915050565b6101ac816101f7565b82525050565b6101bb81610229565b82525050565b60006020820190506101d660008301846101a3565b92915050565b60006020820190506101f160008301846101b2565b92915050565b600061020282610209565b9050919050565b600073ffffffffffffffffffffffffffffffffffffffff82169050919050565b6000819050919050565b61023c81610229565b811461024757600080fd5b5056fea2646970667358221220b720bd99d3b2d9185274812d3d48a85c41b57765f9120861d859f4df776cc3ac64736f6c63430008040033",
  "immutableReferences": {},
  "source": "// SPDX-License-Identifier: MIT\r\npragma solidity 0.8.4;\r\n\r\ncontract DC1 {\r\n    uint256 public num;\r\n    address public sender;\r\n    uint256 public value;\r\n\r\n    function setVars(uint256 _num) public payable {\r\n        num = _num;\r\n        sender = msg.sender;\r\n        value = msg.value;\r\n    }\r\n}\r\n",
  "sourcePath": "C:/Users/kelche codes/desktop/soliditybyexample/contracts/Delegatecall1.sol",
  "compiler": {
    "name": "solc",
    "version": "0.8.4+commit.c7e474f2.Emscripten.clang"
  },
  "schemaVersion": "3.3.4",
  "updatedAt": "2021-05-04T11:22:39.161Z",
  "networkType": "ethereum",
  "devdoc": {
    "kind": "dev",
    "methods": {},
    "version": 1
  },
  "userdoc": {
    "kind": "user",
    "methods": {},
    "version": 1
  }
}