{
  "contractName": "DC2",
  "abi": [
    {
      "inputs": [],
      "name": "num",
      "outputs": [
        {
          "internalType": "uint256",
          "name": "",
          "type": "uint256"
        }
      ],
      "stateMutability": "view",
      "type": "function",
      "constant": true
    },
    {
      "inputs": [],
      "name": "sender",
      "outputs": [
        {
          "internalType": "address",
          "name": "",
          "type": "address"
        }
      ],
      "stateMutability": "view",
      "type": "function",
      "constant": true
    },
    {
      "inputs": [],
      "name": "value",
      "outputs": [
        {
          "internalType": "uint256",
          "name": "",
          "type": "uint256"
        }
      ],
      "stateMutability": "view",
      "type": "function",
      "constant": true
    },
    {
      "inputs": [
        {
          "internalType": "address",
          "name": "_contract",
          "type": "address"
        },
        {
          "internalType": "uint256",
          "name": "_num",
          "type": "uint256"
        }
      ],
      "name": "setVars",
      "outputs": [],
      "stateMutability": "payable",
      "type": "function",
      "payable": true
    }
  ],
  "bytecode": "0x608060405234801561001057600080fd5b506103fe806100206000396000f3fe60806040526004361061003f5760003560e01c80633fa4f245146100445780634e70b1dc1461006f57806367e404ce1461009a578063d1e0f308146100c5575b600080fd5b34801561005057600080fd5b506100596100e1565b60405161006691906102fa565b60405180910390f35b34801561007b57600080fd5b506100846100e7565b60405161009191906102fa565b60405180910390f35b3480156100a657600080fd5b506100af6100ed565b6040516100bc91906102df565b60405180910390f35b6100df60048036038101906100da919061023d565b610113565b005b60025481565b60005481565b600160009054906101000a900473ffffffffffffffffffffffffffffffffffffffff1681565b6000808373ffffffffffffffffffffffffffffffffffffffff168360405160240161013e91906102fa565b6040516020818303038152906040527f6466414b000000000000000000000000000000000000000000000000000000007bffffffffffffffffffffffffffffffffffffffffffffffffffffffff19166020820180517bffffffffffffffffffffffffffffffffffffffffffffffffffffffff83818316178352505050506040516101c891906102c8565b600060405180830381855af49150503d8060008114610203576040519150601f19603f3d011682016040523d82523d6000602084013e610208565b606091505b509150915050505050565b6000813590506102228161039a565b92915050565b600081359050610237816103b1565b92915050565b6000806040838503121561025057600080fd5b600061025e85828601610213565b925050602061026f85828601610228565b9150509250929050565b6102828161032b565b82525050565b600061029382610315565b61029d8185610320565b93506102ad818560208601610367565b80840191505092915050565b6102c28161035d565b82525050565b60006102d48284610288565b915081905092915050565b60006020820190506102f46000830184610279565b92915050565b600060208201905061030f60008301846102b9565b92915050565b600081519050919050565b600081905092915050565b60006103368261033d565b9050919050565b600073ffffffffffffffffffffffffffffffffffffffff82169050919050565b6000819050919050565b60005b8381101561038557808201518184015260208101905061036a565b83811115610394576000848401525b50505050565b6103a38161032b565b81146103ae57600080fd5b50565b6103ba8161035d565b81146103c557600080fd5b5056fea26469706673582212205a17b71b1d532a47548ffbb1c3eab3417984079dbb200d09caa710353ea04acb64736f6c63430008040033",
  "immutableReferences": {},
  "source": "// SPDX-License-Identifier: MIT\r\npragma solidity 0.8.4;\r\n\r\ncontract DC2 {\r\n    uint256 public num;\r\n    address public sender;\r\n    uint256 public value;\r\n\r\n    function setVars(address _contract, uint256 _num) public payable {\r\n        // DC2's storage is set, DC! is not modified\r\n        (bool success, bytes memory data) =\r\n            _contract.delegatecall(\r\n                abi.encodeWithSignature(\"setVars(uint256)\", _num)\r\n            );\r\n    }\r\n}\r\n",
  "sourcePath": "C:/Users/kelche codes/desktop/soliditybyexample/contracts/Delegatecall2.sol",
  "compiler": {
    "name": "solc",
    "version": "0.8.4+commit.c7e474f2.Emscripten.clang"
  },
  "schemaVersion": "3.3.4",
  "updatedAt": "2021-05-04T11:22:39.166Z",
  "networkType": "ethereum",
  "devdoc": {
    "kind": "dev",
    "methods": {},
    "version": 1
  },
  "userdoc": {
    "kind": "user",
    "methods": {},
    "version": 1
  }
}