{
  "contractName": "Enum",
  "abi": [
    {
      "inputs": [],
      "name": "status",
      "outputs": [
        {
          "internalType": "enum Enum.Status",
          "name": "",
          "type": "uint8"
        }
      ],
      "stateMutability": "view",
      "type": "function",
      "constant": true
    },
    {
      "inputs": [],
      "name": "get",
      "outputs": [
        {
          "internalType": "enum Enum.Status",
          "name": "",
          "type": "uint8"
        }
      ],
      "stateMutability": "view",
      "type": "function",
      "constant": true
    },
    {
      "inputs": [
        {
          "internalType": "enum Enum.Status",
          "name": "_status",
          "type": "uint8"
        }
      ],
      "name": "set",
      "outputs": [],
      "stateMutability": "nonpayable",
      "type": "function"
    },
    {
      "inputs": [],
      "name": "cancel",
      "outputs": [],
      "stateMutability": "nonpayable",
      "type": "function"
    },
    {
      "inputs": [],
      "name": "reset",
      "outputs": [],
      "stateMutability": "nonpayable",
      "type": "function"
    }
  ],
  "bytecode": "0x608060405234801561001057600080fd5b506102bc806100206000396000f3fe608060405234801561001057600080fd5b50600436106100575760003560e01c8063200d2ed21461005c57806324b8ba5f1461007a5780636d4ce63c14610096578063d826f88f146100b4578063ea8a1af0146100be575b600080fd5b6100646100c8565b60405161007191906101f3565b60405180910390f35b610094600480360381019061008f91906101bb565b6100d9565b005b61009e61012b565b6040516100ab91906101f3565b60405180910390f35b6100bc610141565b005b6100c6610154565b005b60008054906101000a900460ff1681565b806000806101000a81548160ff02191690836004811115610123577f4e487b7100000000000000000000000000000000000000000000000000000000600052602160045260246000fd5b021790555050565b60008060009054906101000a900460ff16905090565b6000806101000a81549060ff0219169055565b60046000806101000a81548160ff0219169083600481111561019f577f4e487b7100000000000000000000000000000000000000000000000000000000600052602160045260246000fd5b0217905550565b6000813590506101b581610276565b92915050565b6000602082840312156101cd57600080fd5b60006101db848285016101a6565b91505092915050565b6101ed81610221565b82525050565b600060208201905061020860008301846101e4565b92915050565b600081905061021c82610262565b919050565b600061022c8261020e565b9050919050565b7f4e487b7100000000000000000000000000000000000000000000000000000000600052602160045260246000fd5b6005811061027357610272610233565b5b50565b6005811061028357600080fd5b5056fea2646970667358221220c3c1f7d8f9f14f0ce7f35605360c4903fc1df1d00e14cedf4576dccd24b8f28564736f6c63430008040033",
  "immutableReferences": {},
  "source": "//SPDX-License-Identifier: GPL-3.0\r\npragma solidity ^0.8.4;\r\n\r\ncontract Enum {\r\n    // enum representing shipping status\r\n    enum Status {Pending, Shipped, Accepted, Rejected, Canceled}\r\n\r\n    // Default value is the first element listed in\r\n    // Definition of the type in this casea \"Pending\"\r\n\r\n    Status public status;\r\n\r\n    //returns uint\r\n    // pending -o\r\n    //shipped -1\r\n    //accepted -2\r\n    // Rejected -3\r\n    //Canceled - 4\r\n\r\n    function get() public view returns (Status) {\r\n        return status;\r\n    }\r\n\r\n    //Update staus by passing uint into input\r\n    function set(Status _status) public {\r\n        status = _status;\r\n    }\r\n\r\n    //You can update to a specific enum like this\r\n    function cancel() public {\r\n        status = Status.Canceled;\r\n    }\r\n\r\n    //delete resets the enum to it's first value, 0\r\n    function reset() public {\r\n        delete status;\r\n    }\r\n}\r\n",
  "sourcePath": "C:/Users/kelche codes/desktop/SolidityByExample/contracts/Enum.sol",
  "compiler": {
    "name": "solc",
    "version": "0.8.4+commit.c7e474f2.Emscripten.clang"
  },
  "schemaVersion": "3.3.4",
  "updatedAt": "2021-05-01T12:03:07.888Z",
  "networkType": "ethereum",
  "devdoc": {
    "kind": "dev",
    "methods": {},
    "version": 1
  },
  "userdoc": {
    "kind": "user",
    "methods": {},
    "version": 1
  }
}