{
  "contractName": "Error",
  "abi": [
    {
      "inputs": [],
      "name": "num",
      "outputs": [
        {
          "internalType": "uint256",
          "name": "",
          "type": "uint256"
        }
      ],
      "stateMutability": "view",
      "type": "function",
      "constant": true
    },
    {
      "inputs": [
        {
          "internalType": "uint256",
          "name": "_i",
          "type": "uint256"
        }
      ],
      "name": "testRequire",
      "outputs": [],
      "stateMutability": "pure",
      "type": "function",
      "constant": true
    },
    {
      "inputs": [
        {
          "internalType": "uint256",
          "name": "_i",
          "type": "uint256"
        }
      ],
      "name": "testRevert",
      "outputs": [],
      "stateMutability": "pure",
      "type": "function",
      "constant": true
    },
    {
      "inputs": [],
      "name": "testAssert",
      "outputs": [],
      "stateMutability": "view",
      "type": "function",
      "constant": true
    }
  ],
  "bytecode": "0x608060405234801561001057600080fd5b50610325806100206000396000f3fe608060405234801561001057600080fd5b506004361061004c5760003560e01c806320987767146100515780632b813bc01461006d5780634e70b1dc14610077578063b8bd717f14610095575b600080fd5b61006b60048036038101906100669190610192565b6100b1565b005b6100756100f7565b005b61007f610131565b60405161008c9190610250565b60405180910390f35b6100af60048036038101906100aa9190610192565b610137565b005b600a81116100f4576040517f08c379a00000000000000000000000000000000000000000000000000000000081526004016100eb90610210565b60405180910390fd5b50565b600080541461012f577f4e487b7100000000000000000000000000000000000000000000000000000000600052600160045260246000fd5b565b60005481565b600a811161017a576040517f08c379a000000000000000000000000000000000000000000000000000000000815260040161017190610230565b60405180910390fd5b50565b60008135905061018c816102d8565b92915050565b6000602082840312156101a457600080fd5b60006101b28482850161017d565b91505092915050565b60006101c8601c8361026b565b91506101d382610286565b602082019050919050565b60006101eb601e8361026b565b91506101f6826102af565b602082019050919050565b61020a8161027c565b82525050565b60006020820190508181036000830152610229816101bb565b9050919050565b60006020820190508181036000830152610249816101de565b9050919050565b60006020820190506102656000830184610201565b92915050565b600082825260208201905092915050565b6000819050919050565b7f496e707574206d75737420626520677265617465207468616e20313000000000600082015250565b7f496e707574206d757374202062652067726561746572207468616e2031300000600082015250565b6102e18161027c565b81146102ec57600080fd5b5056fea2646970667358221220b9b922c47fa974e0beebeee09997f1ecb5bd87e7dee0ff2474bef37f3fbcdbab64736f6c63430008040033",
  "immutableReferences": {},
  "source": "//SPDX-License-Identifier: GPL-3.0\r\npragma solidity ^0.8.4;\r\n\r\ncontract Error {\r\n    function testRequire(uint256 _i) public pure {\r\n        // Require should be used to validate conditions such as\r\n        // -inputs\r\n        //-conditions before execution\r\n        //- return values from calls to other functions\r\n\r\n        require(_i > 10, \"Input must  be greater than 10\");\r\n    }\r\n\r\n    function testRevert(uint256 _i) public pure {\r\n        // Revert is useful when the condition to check is complex\r\n        //This code does the exact same thing as example\r\n        if (_i <= 10) {\r\n            revert(\"Input must be greate than 10\");\r\n        }\r\n    }\r\n\r\n    uint256 public num;\r\n\r\n    function testAssert() public view {\r\n        //aser should only be used to test for internal errors\r\n        //and to check invariants.\r\n\r\n        // here we asert tgat num is always equal to 0\r\n        // since it is imposible to update the value of num\r\n        assert(num == 0);\r\n    }\r\n}\r\n",
  "sourcePath": "C:/Users/kelche codes/desktop/SolidityByExample/contracts/Error.sol",
  "compiler": {
    "name": "solc",
    "version": "0.8.4+commit.c7e474f2.Emscripten.clang"
  },
  "schemaVersion": "3.3.4",
  "updatedAt": "2021-05-03T12:02:23.592Z",
  "networkType": "ethereum",
  "devdoc": {
    "kind": "dev",
    "methods": {},
    "version": 1
  },
  "userdoc": {
    "kind": "user",
    "methods": {},
    "version": 1
  }
}