{
  "contractName": "FunctionModifier",
  "abi": [
    {
      "inputs": [],
      "stateMutability": "nonpayable",
      "type": "constructor"
    },
    {
      "inputs": [],
      "name": "locked",
      "outputs": [
        {
          "internalType": "bool",
          "name": "",
          "type": "bool"
        }
      ],
      "stateMutability": "view",
      "type": "function",
      "constant": true
    },
    {
      "inputs": [],
      "name": "owner",
      "outputs": [
        {
          "internalType": "address",
          "name": "",
          "type": "address"
        }
      ],
      "stateMutability": "view",
      "type": "function",
      "constant": true
    },
    {
      "inputs": [],
      "name": "x",
      "outputs": [
        {
          "internalType": "uint256",
          "name": "",
          "type": "uint256"
        }
      ],
      "stateMutability": "view",
      "type": "function",
      "constant": true
    },
    {
      "inputs": [
        {
          "internalType": "address",
          "name": "_newOwner",
          "type": "address"
        }
      ],
      "name": "changeOwner",
      "outputs": [],
      "stateMutability": "nonpayable",
      "type": "function"
    },
    {
      "inputs": [
        {
          "internalType": "uint256",
          "name": "i",
          "type": "uint256"
        }
      ],
      "name": "decrement",
      "outputs": [],
      "stateMutability": "nonpayable",
      "type": "function"
    }
  ],
  "bytecode": "0x6080604052600a60015534801561001557600080fd5b50336000806101000a81548173ffffffffffffffffffffffffffffffffffffffff021916908373ffffffffffffffffffffffffffffffffffffffff1602179055506105af806100656000396000f3fe608060405234801561001057600080fd5b50600436106100575760003560e01c80630c55699c1461005c5780633a9ebefd1461007a5780638da5cb5b14610096578063a6f9dae1146100b4578063cf309012146100d0575b600080fd5b6100646100ee565b6040516100719190610422565b60405180910390f35b610094600480360381019061008f9190610310565b6100f4565b005b61009e6101b5565b6040516100ab91906103ac565b60405180910390f35b6100ce60048036038101906100c991906102e7565b6101d9565b005b6100d86102aa565b6040516100e591906103c7565b60405180910390f35b60015481565b600260009054906101000a900460ff1615610144576040517f08c379a000000000000000000000000000000000000000000000000000000000815260040161013b906103e2565b60405180910390fd5b6001600260006101000a81548160ff0219169083151502179055508060016000828254610171919061044e565b92505081905550600181111561019757610196600182610191919061044e565b6100f4565b5b6000600260006101000a81548160ff02191690831515021790555050565b60008054906101000a900473ffffffffffffffffffffffffffffffffffffffff1681565b60008054906101000a900473ffffffffffffffffffffffffffffffffffffffff1673ffffffffffffffffffffffffffffffffffffffff163373ffffffffffffffffffffffffffffffffffffffff1614610267576040517f08c379a000000000000000000000000000000000000000000000000000000000815260040161025e90610402565b60405180910390fd5b806000806101000a81548173ffffffffffffffffffffffffffffffffffffffff021916908373ffffffffffffffffffffffffffffffffffffffff16021790555050565b600260009054906101000a900460ff1681565b6000813590506102cc8161054b565b92915050565b6000813590506102e181610562565b92915050565b6000602082840312156102f957600080fd5b6000610307848285016102bd565b91505092915050565b60006020828403121561032257600080fd5b6000610330848285016102d2565b91505092915050565b61034281610482565b82525050565b61035181610494565b82525050565b6000610364600d8361043d565b915061036f826104f9565b602082019050919050565b600061038760098361043d565b915061039282610522565b602082019050919050565b6103a6816104c0565b82525050565b60006020820190506103c16000830184610339565b92915050565b60006020820190506103dc6000830184610348565b92915050565b600060208201905081810360008301526103fb81610357565b9050919050565b6000602082019050818103600083015261041b8161037a565b9050919050565b6000602082019050610437600083018461039d565b92915050565b600082825260208201905092915050565b6000610459826104c0565b9150610464836104c0565b925082821015610477576104766104ca565b5b828203905092915050565b600061048d826104a0565b9050919050565b60008115159050919050565b600073ffffffffffffffffffffffffffffffffffffffff82169050919050565b6000819050919050565b7f4e487b7100000000000000000000000000000000000000000000000000000000600052601160045260246000fd5b7f4e6f207265656e7472616e637900000000000000000000000000000000000000600082015250565b7f4e6f74206f776e65720000000000000000000000000000000000000000000000600082015250565b61055481610482565b811461055f57600080fd5b50565b61056b816104c0565b811461057657600080fd5b5056fea2646970667358221220cfb4e8e3b6ae8eedec0f2e378c1174163ea01e6fe039164ec51729aeadcb684564736f6c63430008040033",
  "immutableReferences": {},
  "source": "//SPDX-License-Identifier: GPL-3.0\r\npragma solidity ^0.8.4;\r\n\r\ncontract FunctionModifier {\r\n    address public owner;\r\n    uint256 public x = 10;\r\n    bool public locked;\r\n\r\n    constructor() {\r\n        // set trasaction sender as the owner of the contract.\r\n        owner = msg.sender;\r\n    }\r\n\r\n    //Modifier tpo checl that the caller is the owner of the contract\r\n    modifier onlyOwner() {\r\n        require(msg.sender == owner, \"Not owner\");\r\n        //underscore is a special character only used inside\r\n        //a function modifier and it tells Solidity what to\r\n        //execute the rest of the code.\r\n        _;\r\n    }\r\n\r\n    function changeOwner(address _newOwner) public onlyOwner {\r\n        owner = _newOwner;\r\n    }\r\n\r\n    //modifiers can be called before and / or after a function.\r\n    //this modifier precvents a function from being called while\r\n    // it is still executing.\r\n\r\n    modifier noReentrancy() {\r\n        require(!locked, \"No reentrancy\");\r\n\r\n        locked = true;\r\n        _;\r\n        locked = false;\r\n    }\r\n\r\n    function decrement(uint256 i) public noReentrancy {\r\n        x -= i;\r\n        if (i > 1) {\r\n            decrement(i - 1);\r\n        }\r\n    }\r\n}\r\n",
  "sourcePath": "C:/Users/kelche codes/desktop/SolidityByExample/contracts/Modifier.sol",
  "compiler": {
    "name": "solc",
    "version": "0.8.4+commit.c7e474f2.Emscripten.clang"
  },
  "schemaVersion": "3.3.4",
  "updatedAt": "2021-04-30T12:27:25.680Z",
  "networkType": "ethereum",
  "devdoc": {
    "kind": "dev",
    "methods": {},
    "version": 1
  },
  "userdoc": {
    "kind": "user",
    "methods": {},
    "version": 1
  }
}