{
  "contractName": "Function",
  "abi": [
    {
      "inputs": [
        {
          "internalType": "uint256",
          "name": "",
          "type": "uint256"
        }
      ],
      "name": "arr",
      "outputs": [
        {
          "internalType": "uint256",
          "name": "",
          "type": "uint256"
        }
      ],
      "stateMutability": "view",
      "type": "function"
    },
    {
      "inputs": [],
      "name": "returnMany",
      "outputs": [
        {
          "internalType": "uint256",
          "name": "",
          "type": "uint256"
        },
        {
          "internalType": "bool",
          "name": "",
          "type": "bool"
        },
        {
          "internalType": "uint256",
          "name": "",
          "type": "uint256"
        }
      ],
      "stateMutability": "pure",
      "type": "function"
    },
    {
      "inputs": [],
      "name": "named",
      "outputs": [
        {
          "internalType": "uint256",
          "name": "x",
          "type": "uint256"
        },
        {
          "internalType": "bool",
          "name": "b",
          "type": "bool"
        },
        {
          "internalType": "uint256",
          "name": "y",
          "type": "uint256"
        }
      ],
      "stateMutability": "pure",
      "type": "function"
    },
    {
      "inputs": [],
      "name": "destructingAssignments",
      "outputs": [
        {
          "internalType": "uint256",
          "name": "",
          "type": "uint256"
        },
        {
          "internalType": "bool",
          "name": "",
          "type": "bool"
        },
        {
          "internalType": "uint256",
          "name": "",
          "type": "uint256"
        },
        {
          "internalType": "uint256",
          "name": "",
          "type": "uint256"
        },
        {
          "internalType": "uint256",
          "name": "",
          "type": "uint256"
        }
      ],
      "stateMutability": "pure",
      "type": "function"
    },
    {
      "inputs": [
        {
          "internalType": "uint256[]",
          "name": "_arr",
          "type": "uint256[]"
        }
      ],
      "name": "arrayInput",
      "outputs": [],
      "stateMutability": "nonpayable",
      "type": "function"
    },
    {
      "inputs": [],
      "name": "arrayOutput",
      "outputs": [
        {
          "internalType": "uint256[]",
          "name": "",
          "type": "uint256[]"
        }
      ],
      "stateMutability": "view",
      "type": "function"
    }
  ],
  "bytecode": "0x608060405234801561001057600080fd5b506105fc806100206000396000f3fe608060405234801561001057600080fd5b50600436106100625760003560e01c80631990532b146100675780633f7f3db61461008557806345f907a8146100a757806371e5ee5f146100c757806386887544146100f7578063f4bb6e6b14610117575b600080fd5b61006f610133565b60405161007c91906103d7565b60405180910390f35b61008d61018b565b60405161009e95949392919061044b565b60405180910390f35b6100af6101ce565b6040516100be93929190610414565b60405180910390f35b6100e160048036038101906100dc919061030b565b6101e3565b6040516100ee91906103f9565b60405180910390f35b6100ff610207565b60405161010e93929190610414565b60405180910390f35b610131600480360381019061012c91906102ca565b61021c565b005b6060600080548060200260200160405190810160405280929190818152602001828054801561018157602002820191906000526020600020905b81548152602001906001019080831161016d575b5050505050905090565b60008060008060008060008061019f610207565b925092509250600080600460056006925050915084848484849950995099509950995050505050509091929394565b60008060006001806002925092509250909192565b600081815481106101f357600080fd5b906000526020600020016000915090505481565b60008060006001806002925092509250909192565b50565b600061023261022d846104c3565b61049e565b9050808382526020820190508285602086028201111561025157600080fd5b60005b85811015610281578161026788826102b5565b845260208401935060208301925050600181019050610254565b5050509392505050565b600082601f83011261029c57600080fd5b81356102ac84826020860161021f565b91505092915050565b6000813590506102c4816105af565b92915050565b6000602082840312156102dc57600080fd5b600082013567ffffffffffffffff8111156102f657600080fd5b6103028482850161028b565b91505092915050565b60006020828403121561031d57600080fd5b600061032b848285016102b5565b91505092915050565b600061034083836103b9565b60208301905092915050565b6000610357826104ff565b6103618185610517565b935061036c836104ef565b8060005b8381101561039d5781516103848882610334565b975061038f8361050a565b925050600181019050610370565b5085935050505092915050565b6103b381610528565b82525050565b6103c281610534565b82525050565b6103d181610534565b82525050565b600060208201905081810360008301526103f1818461034c565b905092915050565b600060208201905061040e60008301846103c8565b92915050565b600060608201905061042960008301866103c8565b61043660208301856103aa565b61044360408301846103c8565b949350505050565b600060a08201905061046060008301886103c8565b61046d60208301876103aa565b61047a60408301866103c8565b61048760608301856103c8565b61049460808301846103c8565b9695505050505050565b60006104a86104b9565b90506104b4828261053e565b919050565b6000604051905090565b600067ffffffffffffffff8211156104de576104dd61056f565b5b602082029050602081019050919050565b6000819050602082019050919050565b600081519050919050565b6000602082019050919050565b600082825260208201905092915050565b60008115159050919050565b6000819050919050565b6105478261059e565b810181811067ffffffffffffffff821117156105665761056561056f565b5b80604052505050565b7f4e487b7100000000000000000000000000000000000000000000000000000000600052604160045260246000fd5b6000601f19601f8301169050919050565b6105b881610534565b81146105c357600080fd5b5056fea264697066735822122035d094774b4c058abe99f7ff72cb6b5138e44ba7cfef1ec7499306686497f25564736f6c63430008040033",
  "immutableReferences": {},
  "source": "//SPDX-License-Identifier: GPL-3.0\r\n\r\npragma solidity ^0.8.4;\r\n\r\ncontract Function {\r\n    // functions can return multiple values\r\n\r\n    function returnMany()\r\n        public\r\n        pure\r\n        returns (\r\n            uint256,\r\n            bool,\r\n            uint256\r\n        )\r\n    {\r\n        return (1, true, 2);\r\n    }\r\n\r\n    // Return values can be named.\r\n\r\n    function named()\r\n        public\r\n        pure\r\n        returns (\r\n            uint256 x,\r\n            bool b,\r\n            uint256 y\r\n        )\r\n    {\r\n        return (1, true, 2);\r\n    }\r\n\r\n    // Return values can be asigned to their name.\r\n    // In this case the return statement can be ommited\r\n    function destructingAssignments()\r\n        public\r\n        pure\r\n        returns (\r\n            uint256,\r\n            bool,\r\n            uint256,\r\n            uint256,\r\n            uint256\r\n        )\r\n    {\r\n        (uint256 i, bool b, uint256 j) = returnMany();\r\n        //values can be left out.\r\n        (uint256 x, , uint256 y) = (4, 5, 6);\r\n        return (i, b, j, x, y);\r\n    }\r\n\r\n    // cannot use map for neither input nor output\r\n    // can use array for input\r\n    function arrayInput(uint256[] memory _arr) public {}\r\n\r\n    // can use array for output\r\n    uint256[] public arr;\r\n\r\n    function arrayOutput() public view returns (uint256[] memory) {\r\n        return arr;\r\n    }\r\n}\r\n",
  "sourcePath": "C:/Users/kelche codes/desktop/SolidityByExample/contracts/Function.sol",
  "compiler": {
    "name": "solc",
    "version": "0.8.4+commit.c7e474f2.Emscripten.clang"
  },
  "schemaVersion": "3.3.4",
  "updatedAt": "2021-04-29T17:26:19.217Z",
  "devdoc": {
    "kind": "dev",
    "methods": {},
    "version": 1
  },
  "userdoc": {
    "kind": "user",
    "methods": {},
    "version": 1
  }
}