{
  "contractName": "IfElse",
  "abi": [
    {
      "inputs": [
        {
          "internalType": "uint256",
          "name": "x",
          "type": "uint256"
        }
      ],
      "name": "foo",
      "outputs": [
        {
          "internalType": "uint256",
          "name": "",
          "type": "uint256"
        }
      ],
      "stateMutability": "pure",
      "type": "function",
      "constant": true
    }
  ],
  "bytecode": "0x608060405234801561001057600080fd5b5061014f806100206000396000f3fe608060405234801561001057600080fd5b506004361061002b5760003560e01c80632fbebd3814610030575b600080fd5b61004a600480360381019061004591906100a5565b610060565b60405161005791906100dd565b60405180910390f35b6000600a821015610074576000905061008b565b6014821015610086576001905061008b565b600290505b919050565b60008135905061009f81610102565b92915050565b6000602082840312156100b757600080fd5b60006100c584828501610090565b91505092915050565b6100d7816100f8565b82525050565b60006020820190506100f260008301846100ce565b92915050565b6000819050919050565b61010b816100f8565b811461011657600080fd5b5056fea2646970667358221220e8d2a840028a64da45cbe6220d1f029d7c17b7bc536bbe40535086321141b2f864736f6c63430008040033",
  "immutableReferences": {},
  "source": "//SPDX-License-Identifier: GPL-3.0\r\npragma solidity ^0.8.4;\r\n\r\ncontract IfElse {\r\n    function foo(uint256 x) public pure returns (uint256) {\r\n        if (x < 10) {\r\n            return 0;\r\n        } else if (x < 20) {\r\n            return 1;\r\n        } else {\r\n            return 2;\r\n        }\r\n    }\r\n}\r\n",
  "sourcePath": "C:/Users/kelche codes/desktop/SolidityByExample/contracts/IfElse.sol",
  "compiler": {
    "name": "solc",
    "version": "0.8.4+commit.c7e474f2.Emscripten.clang"
  },
  "schemaVersion": "3.3.4",
  "updatedAt": "2021-05-03T12:59:12.926Z",
  "networkType": "ethereum",
  "devdoc": {
    "kind": "dev",
    "methods": {},
    "version": 1
  },
  "userdoc": {
    "kind": "user",
    "methods": {},
    "version": 1
  }
}