{
  "contractName": "KelToken",
  "abi": [
    {
      "inputs": [],
      "stateMutability": "nonpayable",
      "type": "constructor"
    },
    {
      "inputs": [
        {
          "internalType": "address",
          "name": "",
          "type": "address"
        }
      ],
      "name": "balances",
      "outputs": [
        {
          "internalType": "uint256",
          "name": "",
          "type": "uint256"
        }
      ],
      "stateMutability": "view",
      "type": "function",
      "constant": true
    },
    {
      "inputs": [
        {
          "internalType": "uint256",
          "name": "amount",
          "type": "uint256"
        },
        {
          "internalType": "address",
          "name": "to",
          "type": "address"
        }
      ],
      "name": "transfer",
      "outputs": [],
      "stateMutability": "nonpayable",
      "type": "function"
    }
  ],
  "bytecode": "0x608060405234801561001057600080fd5b50336000806101000a81548173ffffffffffffffffffffffffffffffffffffffff021916908373ffffffffffffffffffffffffffffffffffffffff160217905550612710600160008060009054906101000a900473ffffffffffffffffffffffffffffffffffffffff1673ffffffffffffffffffffffffffffffffffffffff1673ffffffffffffffffffffffffffffffffffffffff1681526020019081526020016000208190555061058c806100c76000396000f3fe608060405234801561001057600080fd5b50600436106100365760003560e01c806327e235e31461003b578063b7760c8f1461006b575b600080fd5b61005560048036038101906100509190610327565b610087565b60405161006291906103de565b60405180910390f35b61008560048036038101906100809190610350565b61009f565b005b60016020528060005260406000206000915090505481565b81600160003373ffffffffffffffffffffffffffffffffffffffff1673ffffffffffffffffffffffffffffffffffffffff168152602001908152602001600020541015610121576040517f08c379a0000000000000000000000000000000000000000000000000000000008152600401610118906103be565b60405180910390fd5b600160003373ffffffffffffffffffffffffffffffffffffffff1673ffffffffffffffffffffffffffffffffffffffff1681526020019081526020016000205482600160003373ffffffffffffffffffffffffffffffffffffffff1673ffffffffffffffffffffffffffffffffffffffff168152602001908152602001600020546101ac9190610460565b11156101b757600080fd5b600160008273ffffffffffffffffffffffffffffffffffffffff1673ffffffffffffffffffffffffffffffffffffffff1681526020019081526020016000205482600160008473ffffffffffffffffffffffffffffffffffffffff1673ffffffffffffffffffffffffffffffffffffffff16815260200190815260200160002054610242919061040a565b101561024d57600080fd5b81600160003373ffffffffffffffffffffffffffffffffffffffff1673ffffffffffffffffffffffffffffffffffffffff168152602001908152602001600020600082825461029c9190610460565b9250508190555081600160008373ffffffffffffffffffffffffffffffffffffffff1673ffffffffffffffffffffffffffffffffffffffff16815260200190815260200160002060008282546102f2919061040a565b925050819055505050565b60008135905061030c81610528565b92915050565b6000813590506103218161053f565b92915050565b60006020828403121561033957600080fd5b6000610347848285016102fd565b91505092915050565b6000806040838503121561036357600080fd5b600061037185828601610312565b9250506020610382858286016102fd565b9150509250929050565b60006103996017836103f9565b91506103a4826104ff565b602082019050919050565b6103b8816104c6565b82525050565b600060208201905081810360008301526103d78161038c565b9050919050565b60006020820190506103f360008301846103af565b92915050565b600082825260208201905092915050565b6000610415826104c6565b9150610420836104c6565b9250827fffffffffffffffffffffffffffffffffffffffffffffffffffffffffffffffff03821115610455576104546104d0565b5b828201905092915050565b600061046b826104c6565b9150610476836104c6565b925082821015610489576104886104d0565b5b828203905092915050565b600061049f826104a6565b9050919050565b600073ffffffffffffffffffffffffffffffffffffffff82169050919050565b6000819050919050565b7f4e487b7100000000000000000000000000000000000000000000000000000000600052601160045260246000fd5b7f63686f6f7365206120736d616c6c657220616d6f756e74000000000000000000600082015250565b61053181610494565b811461053c57600080fd5b50565b610548816104c6565b811461055357600080fd5b5056fea2646970667358221220499aadd7c390c2fcfb876fd03f2d30ed05e85b166d267eb5725f6961967a6e2364736f6c63430008040033",
  "immutableReferences": {},
  "source": "// SPDX-License-Identifier: MIT\r\npragma solidity 0.8.4;\r\n\r\ncontract KelToken {\r\n    address owner;\r\n    mapping(address => uint256) public balances;\r\n\r\n    constructor() public {\r\n        owner = msg.sender;\r\n        balances[owner] = 10000;\r\n    }\r\n\r\n    function transfer(uint256 amount, address to) public {\r\n        require(balances[msg.sender] >= amount, \"choose a smaller amount\");\r\n        require(balances[msg.sender] - amount <= balances[msg.sender]);\r\n        require(balances[to] + amount >= balances[to]);\r\n        balances[msg.sender] -= amount;\r\n        balances[to] += amount;\r\n    }\r\n}\r\n",
  "sourcePath": "C:/Users/kelche codes/desktop/soliditybyexample/contracts/KELTokeln.sol",
  "compiler": {
    "name": "solc",
    "version": "0.8.4+commit.c7e474f2.Emscripten.clang"
  },
  "schemaVersion": "3.3.4",
  "updatedAt": "2021-05-04T11:22:39.103Z",
  "networkType": "ethereum",
  "devdoc": {
    "kind": "dev",
    "methods": {},
    "version": 1
  },
  "userdoc": {
    "kind": "user",
    "methods": {},
    "version": 1
  }
}