{
  "contractName": "Loop",
  "abi": [
    {
      "inputs": [],
      "name": "loop",
      "outputs": [],
      "stateMutability": "nonpayable",
      "type": "function"
    }
  ],
  "bytecode": "0x608060405234801561001057600080fd5b50610151806100206000396000f3fe608060405234801561001057600080fd5b506004361061002b5760003560e01c8063a92100cb14610030575b600080fd5b61003861003a565b005b60005b600a81101561007657600381141561005457610063565b600581141561006257610076565b5b808061006e906100a3565b91505061003d565b5060005b600a81101561009657808061008e906100a3565b91505061007a565b50565b6000819050919050565b60006100ae82610099565b91507fffffffffffffffffffffffffffffffffffffffffffffffffffffffffffffffff8214156100e1576100e06100ec565b5b600182019050919050565b7f4e487b7100000000000000000000000000000000000000000000000000000000600052601160045260246000fdfea2646970667358221220485cdbdecedd36b1109dab854af447ea42c224cd8e6026ddd1603f3232e0392064736f6c63430008040033",
  "immutableReferences": {},
  "source": "//SPDX-License-Identifier: GPL-3.0\r\npragma solidity ^0.8.4;\r\n\r\ncontract Loop {\r\n    function loop() public {\r\n        for (uint256 i = 0; i < 10; i++) {\r\n            if (i == 3) {\r\n                continue;\r\n            }\r\n            if (i == 5) {\r\n                break;\r\n            }\r\n        }\r\n        uint256 j;\r\n        while (j < 10) {\r\n            j++;\r\n        }\r\n    }\r\n}\r\n",
  "sourcePath": "C:/Users/kelche codes/desktop/SolidityByExample/contracts/Loop.sol",
  "compiler": {
    "name": "solc",
    "version": "0.8.4+commit.c7e474f2.Emscripten.clang"
  },
  "schemaVersion": "3.3.4",
  "updatedAt": "2021-04-30T14:08:46.561Z",
  "networkType": "ethereum",
  "devdoc": {
    "kind": "dev",
    "methods": {},
    "version": 1
  },
  "userdoc": {
    "kind": "user",
    "methods": {},
    "version": 1
  }
}