{
  "contractName": "Map2",
  "abi": [
    {
      "inputs": [],
      "stateMutability": "nonpayable",
      "type": "constructor"
    },
    {
      "inputs": [
        {
          "internalType": "uint256",
          "name": "",
          "type": "uint256"
        }
      ],
      "name": "books",
      "outputs": [
        {
          "internalType": "string",
          "name": "title",
          "type": "string"
        },
        {
          "internalType": "string",
          "name": "author",
          "type": "string"
        }
      ],
      "stateMutability": "view",
      "type": "function",
      "constant": true
    },
    {
      "inputs": [
        {
          "internalType": "uint256",
          "name": "",
          "type": "uint256"
        }
      ],
      "name": "names",
      "outputs": [
        {
          "internalType": "string",
          "name": "",
          "type": "string"
        }
      ],
      "stateMutability": "view",
      "type": "function",
      "constant": true
    },
    {
      "inputs": [
        {
          "internalType": "uint256",
          "name": "_id",
          "type": "uint256"
        },
        {
          "internalType": "string",
          "name": "_title",
          "type": "string"
        },
        {
          "internalType": "string",
          "name": "_author",
          "type": "string"
        }
      ],
      "name": "addBook",
      "outputs": [],
      "stateMutability": "nonpayable",
      "type": "function"
    },
    {
      "inputs": [
        {
          "internalType": "uint256",
          "name": "_id",
          "type": "uint256"
        },
        {
          "internalType": "string",
          "name": "_title",
          "type": "string"
        },
        {
          "internalType": "string",
          "name": "_author",
          "type": "string"
        }
      ],
      "name": "addMyBook",
      "outputs": [],
      "stateMutability": "nonpayable",
      "type": "function"
    }
  ],
  "bytecode": "0x608060405234801561001057600080fd5b506040518060400160405280600481526020017f4164616d0000000000000000000000000000000000000000000000000000000081525060008060018152602001908152602001600020908051906020019061006d92919061012d565b506040518060400160405280600581526020017f42727563650000000000000000000000000000000000000000000000000000008152506000806002815260200190815260200160002090805190602001906100ca92919061012d565b506040518060400160405280600481526020017f4361726c0000000000000000000000000000000000000000000000000000000081525060008060038152602001908152602001600020908051906020019061012792919061012d565b50610231565b828054610139906101d0565b90600052602060002090601f01602090048101928261015b57600085556101a2565b82601f1061017457805160ff19168380011785556101a2565b828001600101855582156101a2579182015b828111156101a1578251825591602001919060010190610186565b5b5090506101af91906101b3565b5090565b5b808211156101cc5760008160009055506001016101b4565b5090565b600060028204905060018216806101e857607f821691505b602082108114156101fc576101fb610202565b5b50919050565b7f4e487b7100000000000000000000000000000000000000000000000000000000600052602260045260246000fd5b610806806102406000396000f3fe608060405234801561001057600080fd5b506004361061004c5760003560e01c8063028414f2146100515780634622ab031461006d578063493ec7071461009d57806368744046146100b9575b600080fd5b61006b60048036038101906100669190610518565b6100ea565b005b610087600480360381019061008291906104ef565b610154565b60405161009491906105d0565b60405180910390f35b6100b760048036038101906100b29190610518565b6101f4565b005b6100d360048036038101906100ce91906104ef565b61029b565b6040516100e19291906105f2565b60405180910390f35b60405180604001604052808381526020018281525060016000858152602001908152602001600020600082015181600001908051906020019061012e9291906103cf565b50602082015181600101908051906020019061014b9291906103cf565b50905050505050565b60006020528060005260406000206000915090508054610173906106e7565b80601f016020809104026020016040519081016040528092919081815260200182805461019f906106e7565b80156101ec5780601f106101c1576101008083540402835291602001916101ec565b820191906000526020600020905b8154815290600101906020018083116101cf57829003601f168201915b505050505081565b604051806040016040528083815260200182815250600260003373ffffffffffffffffffffffffffffffffffffffff1673ffffffffffffffffffffffffffffffffffffffff168152602001908152602001600020600085815260200190815260200160002060008201518160000190805190602001906102759291906103cf565b5060208201518160010190805190602001906102929291906103cf565b50905050505050565b60016020528060005260406000206000915090508060000180546102be906106e7565b80601f01602080910402602001604051908101604052809291908181526020018280546102ea906106e7565b80156103375780601f1061030c57610100808354040283529160200191610337565b820191906000526020600020905b81548152906001019060200180831161031a57829003601f168201915b50505050509080600101805461034c906106e7565b80601f0160208091040260200160405190810160405280929190818152602001828054610378906106e7565b80156103c55780601f1061039a576101008083540402835291602001916103c5565b820191906000526020600020905b8154815290600101906020018083116103a857829003601f168201915b5050505050905082565b8280546103db906106e7565b90600052602060002090601f0160209004810192826103fd5760008555610444565b82601f1061041657805160ff1916838001178555610444565b82800160010185558215610444579182015b82811115610443578251825591602001919060010190610428565b5b5090506104519190610455565b5090565b5b8082111561046e576000816000905550600101610456565b5090565b60006104856104808461064e565b610629565b90508281526020810184848401111561049d57600080fd5b6104a88482856106a5565b509392505050565b600082601f8301126104c157600080fd5b81356104d1848260208601610472565b91505092915050565b6000813590506104e9816107b9565b92915050565b60006020828403121561050157600080fd5b600061050f848285016104da565b91505092915050565b60008060006060848603121561052d57600080fd5b600061053b868287016104da565b935050602084013567ffffffffffffffff81111561055857600080fd5b610564868287016104b0565b925050604084013567ffffffffffffffff81111561058157600080fd5b61058d868287016104b0565b9150509250925092565b60006105a28261067f565b6105ac818561068a565b93506105bc8185602086016106b4565b6105c5816107a8565b840191505092915050565b600060208201905081810360008301526105ea8184610597565b905092915050565b6000604082019050818103600083015261060c8185610597565b905081810360208301526106208184610597565b90509392505050565b6000610633610644565b905061063f8282610719565b919050565b6000604051905090565b600067ffffffffffffffff82111561066957610668610779565b5b610672826107a8565b9050602081019050919050565b600081519050919050565b600082825260208201905092915050565b6000819050919050565b82818337600083830152505050565b60005b838110156106d25780820151818401526020810190506106b7565b838111156106e1576000848401525b50505050565b600060028204905060018216806106ff57607f821691505b602082108114156107135761071261074a565b5b50919050565b610722826107a8565b810181811067ffffffffffffffff8211171561074157610740610779565b5b80604052505050565b7f4e487b7100000000000000000000000000000000000000000000000000000000600052602260045260246000fd5b7f4e487b7100000000000000000000000000000000000000000000000000000000600052604160045260246000fd5b6000601f19601f8301169050919050565b6107c28161069b565b81146107cd57600080fd5b5056fea2646970667358221220d10748de655600173cd6fa3bc47076fcfbfb1c04351b972be6a869312b9163df64736f6c63430008040033",
  "immutableReferences": {},
  "source": "// SPDX-License-Identifier: MIT\r\npragma solidity 0.8.4;\r\n\r\ncontract Map2 {\r\n    mapping(uint256 => string) public names;\r\n    mapping(uint256 => Book) public books;\r\n    mapping(address => mapping(uint256 => Book)) myBooks;\r\n\r\n    struct Book {\r\n        string title;\r\n        string author;\r\n    }\r\n\r\n    constructor() public {\r\n        names[1] = \"Adam\";\r\n        names[2] = \"Bruce\";\r\n        names[3] = \"Carl\";\r\n    }\r\n\r\n    function addBook(\r\n        uint256 _id,\r\n        string memory _title,\r\n        string memory _author\r\n    ) public {\r\n        books[_id] = Book(_title, _author);\r\n    }\r\n\r\n    function addMyBook(\r\n        uint256 _id,\r\n        string memory _title,\r\n        string memory _author\r\n    ) public {\r\n        myBooks[msg.sender][_id] = Book(_title, _author);\r\n    }\r\n}\r\n",
  "sourcePath": "C:/Users/kelche codes/desktop/SolidityByExample/contracts/Mappings2.sol",
  "compiler": {
    "name": "solc",
    "version": "0.8.4+commit.c7e474f2.Emscripten.clang"
  },
  "schemaVersion": "3.3.4",
  "updatedAt": "2021-05-03T12:59:13.029Z",
  "networkType": "ethereum",
  "devdoc": {
    "kind": "dev",
    "methods": {},
    "version": 1
  },
  "userdoc": {
    "kind": "user",
    "methods": {},
    "version": 1
  }
}