{
  "contractName": "Mapping",
  "abi": [
    {
      "inputs": [
        {
          "internalType": "address",
          "name": "_addr",
          "type": "address"
        }
      ],
      "name": "get",
      "outputs": [
        {
          "internalType": "uint256",
          "name": "",
          "type": "uint256"
        }
      ],
      "stateMutability": "view",
      "type": "function",
      "constant": true
    },
    {
      "inputs": [
        {
          "internalType": "address",
          "name": "_addr",
          "type": "address"
        },
        {
          "internalType": "uint256",
          "name": "_i",
          "type": "uint256"
        }
      ],
      "name": "set",
      "outputs": [],
      "stateMutability": "nonpayable",
      "type": "function"
    },
    {
      "inputs": [
        {
          "internalType": "address",
          "name": "_addr",
          "type": "address"
        }
      ],
      "name": "remove",
      "outputs": [],
      "stateMutability": "nonpayable",
      "type": "function"
    }
  ],
  "bytecode": "0x608060405234801561001057600080fd5b506102db806100206000396000f3fe608060405234801561001057600080fd5b50600436106100415760003560e01c806329092d0e146100465780633825d82814610062578063c2bc2efc1461007e575b600080fd5b610060600480360381019061005b91906101ac565b6100ae565b005b61007c600480360381019061007791906101d5565b6100f3565b005b610098600480360381019061009391906101ac565b61013a565b6040516100a59190610220565b60405180910390f35b6000808273ffffffffffffffffffffffffffffffffffffffff1673ffffffffffffffffffffffffffffffffffffffff1681526020019081526020016000206000905550565b806000808473ffffffffffffffffffffffffffffffffffffffff1673ffffffffffffffffffffffffffffffffffffffff168152602001908152602001600020819055505050565b60008060008373ffffffffffffffffffffffffffffffffffffffff1673ffffffffffffffffffffffffffffffffffffffff168152602001908152602001600020549050919050565b60008135905061019181610277565b92915050565b6000813590506101a68161028e565b92915050565b6000602082840312156101be57600080fd5b60006101cc84828501610182565b91505092915050565b600080604083850312156101e857600080fd5b60006101f685828601610182565b925050602061020785828601610197565b9150509250929050565b61021a8161026d565b82525050565b60006020820190506102356000830184610211565b92915050565b60006102468261024d565b9050919050565b600073ffffffffffffffffffffffffffffffffffffffff82169050919050565b6000819050919050565b6102808161023b565b811461028b57600080fd5b50565b6102978161026d565b81146102a257600080fd5b5056fea26469706673582212204e820ea91bababe9eb4d4880f1ac9c3cc4d0af55d1f27a42012f5f4de6741d8364736f6c63430008040033",
  "immutableReferences": {},
  "source": "//SPDX-License-Identifier: GPL-3.0\r\n\r\npragma solidity ^0.8.4;\r\n\r\ncontract Mapping {\r\n    // mapping from addreaa to uint\r\n    mapping(address => uint256) myMap;\r\n\r\n    function get(address _addr) public view returns (uint256) {\r\n        //Mapping always returns a value,\r\n        //If the value was never set it will return default value\r\n\r\n        return myMap[_addr];\r\n    }\r\n\r\n    function set(address _addr, uint256 _i) public {\r\n        // update the valu at this address\r\n        myMap[_addr] = _i;\r\n    }\r\n\r\n    function remove(address _addr) public {\r\n        // reset the value of the default value\r\n        delete myMap[_addr];\r\n    }\r\n}\r\n\r\ncontract NestedMapping {\r\n    //Nested mapping (mapping from address to another mapping)\r\n    mapping(address => mapping(uint256 => bool)) nested;\r\n\r\n    function get(address _addr1, uint256 _i) public view returns (bool) {\r\n        //You can get valuws from nested mapping\r\n        // even when it is not initialized\r\n        return nested[_addr1][_i];\r\n    }\r\n\r\n    function set(\r\n        address _addr1,\r\n        uint256 _i,\r\n        bool _boo\r\n    ) public {\r\n        nested[_addr1][_i] = _boo;\r\n    }\r\n\r\n    function remove(address _addr1, uint256 _i) public {\r\n        delete nested[_addr1][_i];\r\n    }\r\n}\r\n",
  "sourcePath": "C:/Users/kelche codes/desktop/SolidityByExample/contracts/Mapping.sol",
  "compiler": {
    "name": "solc",
    "version": "0.8.4+commit.c7e474f2.Emscripten.clang"
  },
  "schemaVersion": "3.3.4",
  "updatedAt": "2021-05-01T12:03:07.877Z",
  "networkType": "ethereum",
  "devdoc": {
    "kind": "dev",
    "methods": {},
    "version": 1
  },
  "userdoc": {
    "kind": "user",
    "methods": {},
    "version": 1
  }
}