{
  "contractName": "MappingExample",
  "abi": [
    {
      "inputs": [
        {
          "internalType": "address",
          "name": "",
          "type": "address"
        }
      ],
      "name": "balances",
      "outputs": [
        {
          "internalType": "uint256",
          "name": "",
          "type": "uint256"
        }
      ],
      "stateMutability": "view",
      "type": "function",
      "constant": true
    },
    {
      "inputs": [
        {
          "internalType": "uint256",
          "name": "newBalance",
          "type": "uint256"
        }
      ],
      "name": "update",
      "outputs": [],
      "stateMutability": "nonpayable",
      "type": "function"
    }
  ],
  "bytecode": "0x608060405234801561001057600080fd5b5061022b806100206000396000f3fe608060405234801561001057600080fd5b50600436106100365760003560e01c806327e235e31461003b57806382ab890a1461006b575b600080fd5b6100556004803603810190610050919061010f565b610087565b6040516100629190610170565b60405180910390f35b61008560048036038101906100809190610138565b61009f565b005b60006020528060005260406000206000915090505481565b806000803373ffffffffffffffffffffffffffffffffffffffff1673ffffffffffffffffffffffffffffffffffffffff1681526020019081526020016000208190555050565b6000813590506100f4816101c7565b92915050565b600081359050610109816101de565b92915050565b60006020828403121561012157600080fd5b600061012f848285016100e5565b91505092915050565b60006020828403121561014a57600080fd5b6000610158848285016100fa565b91505092915050565b61016a816101bd565b82525050565b60006020820190506101856000830184610161565b92915050565b60006101968261019d565b9050919050565b600073ffffffffffffffffffffffffffffffffffffffff82169050919050565b6000819050919050565b6101d08161018b565b81146101db57600080fd5b50565b6101e7816101bd565b81146101f257600080fd5b5056fea26469706673582212207ac7dbdaa1986dd19f0ad570ce9b37355978130e61be6ebc87071ace536701e964736f6c63430008040033",
  "immutableReferences": {},
  "source": "// SPDX-License-Identifier: GPL-3.0\r\npragma solidity >=0.4.0 <0.9.0;\r\n\r\ncontract MappingExample {\r\n    mapping(address => uint256) public balances;\r\n\r\n    function update(uint256 newBalance) public {\r\n        balances[msg.sender] = newBalance;\r\n    }\r\n}\r\n\r\ncontract MappingUser {\r\n    function f() public returns (uint256) {\r\n        MappingExample m = new MappingExample();\r\n        m.update(100);\r\n        return m.balances(address(this));\r\n    }\r\n}\r\n",
  "sourcePath": "C:/Users/kelche codes/desktop/SolidityByExample/contracts/Mappings2.sol",
  "compiler": {
    "name": "solc",
    "version": "0.8.4+commit.c7e474f2.Emscripten.clang"
  },
  "schemaVersion": "3.3.4",
  "updatedAt": "2021-05-02T12:51:06.599Z",
  "networkType": "ethereum",
  "devdoc": {
    "kind": "dev",
    "methods": {},
    "version": 1
  },
  "userdoc": {
    "kind": "user",
    "methods": {},
    "version": 1
  }
}