{
  "contractName": "MappingUser",
  "abi": [
    {
      "inputs": [],
      "name": "f",
      "outputs": [
        {
          "internalType": "uint256",
          "name": "",
          "type": "uint256"
        }
      ],
      "stateMutability": "nonpayable",
      "type": "function"
    }
  ],
  "bytecode": "0x608060405234801561001057600080fd5b50610526806100206000396000f3fe608060405234801561001057600080fd5b506004361061002b5760003560e01c806326121ff014610030575b600080fd5b61003861004e565b6040516100459190610225565b60405180910390f35b60008060405161005d90610177565b604051809103906000f080158015610079573d6000803e3d6000fd5b5090508073ffffffffffffffffffffffffffffffffffffffff166382ab890a60646040518263ffffffff1660e01b81526004016100b6919061020a565b600060405180830381600087803b1580156100d057600080fd5b505af11580156100e4573d6000803e3d6000fd5b505050508073ffffffffffffffffffffffffffffffffffffffff166327e235e3306040518263ffffffff1660e01b815260040161012191906101ef565b60206040518083038186803b15801561013957600080fd5b505afa15801561014d573d6000803e3d6000fd5b505050506040513d601f19601f820116820180604052508101906101719190610199565b91505090565b61024b806102a683390190565b6000815190506101938161028e565b92915050565b6000602082840312156101ab57600080fd5b60006101b984828501610184565b91505092915050565b6101cb81610240565b82525050565b6101da8161027c565b82525050565b6101e981610272565b82525050565b600060208201905061020460008301846101c2565b92915050565b600060208201905061021f60008301846101d1565b92915050565b600060208201905061023a60008301846101e0565b92915050565b600061024b82610252565b9050919050565b600073ffffffffffffffffffffffffffffffffffffffff82169050919050565b6000819050919050565b600061028782610272565b9050919050565b61029781610272565b81146102a257600080fd5b5056fe608060405234801561001057600080fd5b5061022b806100206000396000f3fe608060405234801561001057600080fd5b50600436106100365760003560e01c806327e235e31461003b57806382ab890a1461006b575b600080fd5b6100556004803603810190610050919061010f565b610087565b6040516100629190610170565b60405180910390f35b61008560048036038101906100809190610138565b61009f565b005b60006020528060005260406000206000915090505481565b806000803373ffffffffffffffffffffffffffffffffffffffff1673ffffffffffffffffffffffffffffffffffffffff1681526020019081526020016000208190555050565b6000813590506100f4816101c7565b92915050565b600081359050610109816101de565b92915050565b60006020828403121561012157600080fd5b600061012f848285016100e5565b91505092915050565b60006020828403121561014a57600080fd5b6000610158848285016100fa565b91505092915050565b61016a816101bd565b82525050565b60006020820190506101856000830184610161565b92915050565b60006101968261019d565b9050919050565b600073ffffffffffffffffffffffffffffffffffffffff82169050919050565b6000819050919050565b6101d08161018b565b81146101db57600080fd5b50565b6101e7816101bd565b81146101f257600080fd5b5056fea26469706673582212207ac7dbdaa1986dd19f0ad570ce9b37355978130e61be6ebc87071ace536701e964736f6c63430008040033a2646970667358221220bdf7fa69ceb80490559afa0e29683493e7cf19efb3a9f635e6e4c423301d2b2864736f6c63430008040033",
  "immutableReferences": {},
  "source": "// SPDX-License-Identifier: GPL-3.0\r\npragma solidity >=0.4.0 <0.9.0;\r\n\r\ncontract MappingExample {\r\n    mapping(address => uint256) public balances;\r\n\r\n    function update(uint256 newBalance) public {\r\n        balances[msg.sender] = newBalance;\r\n    }\r\n}\r\n\r\ncontract MappingUser {\r\n    function f() public returns (uint256) {\r\n        MappingExample m = new MappingExample();\r\n        m.update(100);\r\n        return m.balances(address(this));\r\n    }\r\n}\r\n",
  "sourcePath": "C:/Users/kelche codes/desktop/SolidityByExample/contracts/Mappings2.sol",
  "compiler": {
    "name": "solc",
    "version": "0.8.4+commit.c7e474f2.Emscripten.clang"
  },
  "schemaVersion": "3.3.4",
  "updatedAt": "2021-05-02T12:50:50.369Z",
  "devdoc": {
    "kind": "dev",
    "methods": {},
    "version": 1
  },
  "userdoc": {
    "kind": "user",
    "methods": {},
    "version": 1
  }
}