{
  "contractName": "MyContract",
  "abi": [
    {
      "inputs": [
        {
          "internalType": "address",
          "name": "_counter",
          "type": "address"
        }
      ],
      "name": "incrementCounter",
      "outputs": [],
      "stateMutability": "nonpayable",
      "type": "function"
    },
    {
      "inputs": [
        {
          "internalType": "address",
          "name": "_counter",
          "type": "address"
        }
      ],
      "name": "getCount",
      "outputs": [
        {
          "internalType": "uint256",
          "name": "",
          "type": "uint256"
        }
      ],
      "stateMutability": "view",
      "type": "function"
    }
  ],
  "bytecode": "0x608060405234801561001057600080fd5b506102b7806100206000396000f3fe608060405234801561001057600080fd5b50600436106100365760003560e01c80634f0cd27b1461003b578063e5910ae71461006b575b600080fd5b6100556004803603810190610050919061019b565b610087565b60405161006291906101fc565b60405180910390f35b6100856004803603810190610080919061019b565b61010e565b005b60008173ffffffffffffffffffffffffffffffffffffffff166306661abd6040518163ffffffff1660e01b815260040160206040518083038186803b1580156100cf57600080fd5b505afa1580156100e3573d6000803e3d6000fd5b505050506040513d601f19601f8201168201806040525081019061010791906101c4565b9050919050565b8073ffffffffffffffffffffffffffffffffffffffff1663d09de08a6040518163ffffffff1660e01b8152600401600060405180830381600087803b15801561015657600080fd5b505af115801561016a573d6000803e3d6000fd5b5050505050565b60008135905061018081610253565b92915050565b6000815190506101958161026a565b92915050565b6000602082840312156101ad57600080fd5b60006101bb84828501610171565b91505092915050565b6000602082840312156101d657600080fd5b60006101e484828501610186565b91505092915050565b6101f681610249565b82525050565b600060208201905061021160008301846101ed565b92915050565b600061022282610229565b9050919050565b600073ffffffffffffffffffffffffffffffffffffffff82169050919050565b6000819050919050565b61025c81610217565b811461026757600080fd5b50565b61027381610249565b811461027e57600080fd5b5056fea2646970667358221220c7e44cdd8e0102cd28740d171b8e422f4f6512454154023222ed3c1ee3f9cdf864736f6c63430008040033",
  "immutableReferences": {},
  "source": "// SPDX-License-Identifier: GPL-3.0\r\n\r\npragma solidity 0.8.4;\r\n\r\ncontract Counter {\r\n    uint256 public count;\r\n\r\n    function inrement() external {\r\n        count++;\r\n    }\r\n}\r\n\r\ninterface Icounter {\r\n    function count() external view returns (uint256);\r\n\r\n    function increment() external;\r\n}\r\n\r\ncontract MyContract {\r\n    function incrementCounter(address _counter) external {\r\n        Icounter(_counter).increment();\r\n    }\r\n\r\n    function getCount(address _counter) external view returns (uint256) {\r\n        return Icounter(_counter).count();\r\n    }\r\n}\r\n\r\n//Uniswap Example\r\n\r\ninterface UniswapV2Factory {\r\n    function getPair(address tokenA, address tokenB)\r\n        external\r\n        view\r\n        returns (address pair);\r\n}\r\n\r\ninterface UniswapV2Pair {\r\n    function getReserves()\r\n        external\r\n        view\r\n        returns (\r\n            uint112 reserve0,\r\n            uint112 reserve1,\r\n            uint32 blockTimestampLast\r\n        );\r\n}\r\n\r\ncontract UniswapExample {\r\n    address private factory = 0xd96d8a6eA6Ff641Ca272bA4efb955aE6704d7994;\r\n    address private dai = 0x63442EaD99Df0Cb6d7Df300bd3fEB1045fBf6F6F;\r\n    address private weth = 0xE883F55adA54579022Fb9b255c3E89B591cB8C7c;\r\n\r\n    function getTokenReserves() external view returns (uint256, uint256) {\r\n        address pair = UniswapV2Factory(factory).getPair(dai, weth);\r\n        (uint256 reserve0, uint256 reserve1, ) =\r\n            UniswapV2Pair(pair).getReserves();\r\n        return (reserve0, reserve1);\r\n    }\r\n}\r\n",
  "sourcePath": "C:/Users/kelche codes/desktop/SolidityByExample/contracts/Interface.sol",
  "compiler": {
    "name": "solc",
    "version": "0.8.4+commit.c7e474f2.Emscripten.clang"
  },
  "schemaVersion": "3.3.4",
  "updatedAt": "2021-05-01T13:48:03.904Z",
  "devdoc": {
    "kind": "dev",
    "methods": {},
    "version": 1
  },
  "userdoc": {
    "kind": "user",
    "methods": {},
    "version": 1
  }
}