{
  "contractName": "NestedMapping",
  "abi": [
    {
      "inputs": [
        {
          "internalType": "address",
          "name": "_addr1",
          "type": "address"
        },
        {
          "internalType": "uint256",
          "name": "_i",
          "type": "uint256"
        }
      ],
      "name": "get",
      "outputs": [
        {
          "internalType": "bool",
          "name": "",
          "type": "bool"
        }
      ],
      "stateMutability": "view",
      "type": "function"
    },
    {
      "inputs": [
        {
          "internalType": "address",
          "name": "_addr1",
          "type": "address"
        },
        {
          "internalType": "uint256",
          "name": "_i",
          "type": "uint256"
        },
        {
          "internalType": "bool",
          "name": "_boo",
          "type": "bool"
        }
      ],
      "name": "set",
      "outputs": [],
      "stateMutability": "nonpayable",
      "type": "function"
    },
    {
      "inputs": [
        {
          "internalType": "address",
          "name": "_addr1",
          "type": "address"
        },
        {
          "internalType": "uint256",
          "name": "_i",
          "type": "uint256"
        }
      ],
      "name": "remove",
      "outputs": [],
      "stateMutability": "nonpayable",
      "type": "function"
    }
  ],
  "bytecode": "0x608060405234801561001057600080fd5b5061039b806100206000396000f3fe608060405234801561001057600080fd5b50600436106100415760003560e01c80630b13919414610046578063abe7f1ab14610062578063b464631b1461007e575b600080fd5b610060600480360381019061005b919061025f565b6100ae565b005b61007c60048036038101906100779190610223565b61011a565b005b61009860048036038101906100939190610223565b61017d565b6040516100a591906102bd565b60405180910390f35b806000808573ffffffffffffffffffffffffffffffffffffffff1673ffffffffffffffffffffffffffffffffffffffff168152602001908152602001600020600084815260200190815260200160002060006101000a81548160ff021916908315150217905550505050565b6000808373ffffffffffffffffffffffffffffffffffffffff1673ffffffffffffffffffffffffffffffffffffffff168152602001908152602001600020600082815260200190815260200160002060006101000a81549060ff02191690555050565b60008060008473ffffffffffffffffffffffffffffffffffffffff1673ffffffffffffffffffffffffffffffffffffffff168152602001908152602001600020600083815260200190815260200160002060009054906101000a900460ff16905092915050565b6000813590506101f381610320565b92915050565b60008135905061020881610337565b92915050565b60008135905061021d8161034e565b92915050565b6000806040838503121561023657600080fd5b6000610244858286016101e4565b92505060206102558582860161020e565b9150509250929050565b60008060006060848603121561027457600080fd5b6000610282868287016101e4565b93505060206102938682870161020e565b92505060406102a4868287016101f9565b9150509250925092565b6102b7816102ea565b82525050565b60006020820190506102d260008301846102ae565b92915050565b60006102e3826102f6565b9050919050565b60008115159050919050565b600073ffffffffffffffffffffffffffffffffffffffff82169050919050565b6000819050919050565b610329816102d8565b811461033457600080fd5b50565b610340816102ea565b811461034b57600080fd5b50565b61035781610316565b811461036257600080fd5b5056fea264697066735822122068604c6c508fe8bc82b022ef5c5d7ff8cdc1cd9bacb94313849b2b049ff4be2764736f6c63430008040033",
  "immutableReferences": {},
  "source": "//SPDX-License-Identifier: GPL-3.0\r\n\r\npragma solidity ^0.8.4;\r\n\r\ncontract Mapping {\r\n    // mapping from addreaa to uint\r\n    mapping(address => uint256) myMap;\r\n\r\n    function get(address _addr) public view returns (uint256) {\r\n        //Mapping always returns a value,\r\n        //If the value was never set it will return default value\r\n\r\n        return myMap[_addr];\r\n    }\r\n\r\n    function set(address _addr, uint256 _i) public {\r\n        // update the valu at this address\r\n        myMap[_addr] = _i;\r\n    }\r\n\r\n    function remove(address _addr) public {\r\n        // reset the value of the default value\r\n        delete myMap[_addr];\r\n    }\r\n}\r\n\r\ncontract NestedMapping {\r\n    //Nested mapping (mapping from address to another mapping)\r\n    mapping(address => mapping(uint256 => bool)) nested;\r\n\r\n    function get(address _addr1, uint256 _i) public view returns (bool) {\r\n        //You can get valuws from nested mapping\r\n        // even when it is not initialized\r\n        return nested[_addr1][_i];\r\n    }\r\n\r\n    function set(\r\n        address _addr1,\r\n        uint256 _i,\r\n        bool _boo\r\n    ) public {\r\n        nested[_addr1][_i] = _boo;\r\n    }\r\n\r\n    function remove(address _addr1, uint256 _i) public {\r\n        delete nested[_addr1][_i];\r\n    }\r\n}\r\n",
  "sourcePath": "C:/Users/kelche codes/desktop/soliditybyexample/contracts/Mapping.sol",
  "compiler": {
    "name": "solc",
    "version": "0.8.4+commit.c7e474f2.Emscripten.clang"
  },
  "schemaVersion": "3.3.4",
  "updatedAt": "2021-05-04T11:22:22.587Z",
  "devdoc": {
    "kind": "dev",
    "methods": {},
    "version": 1
  },
  "userdoc": {
    "kind": "user",
    "methods": {},
    "version": 1
  }
}