{
  "contractName": "Payable",
  "abi": [
    {
      "inputs": [],
      "stateMutability": "payable",
      "type": "constructor",
      "payable": true
    },
    {
      "inputs": [],
      "name": "owner",
      "outputs": [
        {
          "internalType": "address payable",
          "name": "",
          "type": "address"
        }
      ],
      "stateMutability": "view",
      "type": "function",
      "constant": true
    },
    {
      "inputs": [],
      "name": "deposit",
      "outputs": [],
      "stateMutability": "payable",
      "type": "function",
      "payable": true
    },
    {
      "inputs": [],
      "name": "notPayable",
      "outputs": [],
      "stateMutability": "nonpayable",
      "type": "function"
    },
    {
      "inputs": [],
      "name": "withdraw",
      "outputs": [],
      "stateMutability": "nonpayable",
      "type": "function"
    },
    {
      "inputs": [
        {
          "internalType": "address payable",
          "name": "_to",
          "type": "address"
        },
        {
          "internalType": "uint256",
          "name": "_amount",
          "type": "uint256"
        }
      ],
      "name": "transfer",
      "outputs": [],
      "stateMutability": "nonpayable",
      "type": "function"
    }
  ],
  "bytecode": "0x6080604052336000806101000a81548173ffffffffffffffffffffffffffffffffffffffff021916908373ffffffffffffffffffffffffffffffffffffffff16021790555061047d806100536000396000f3fe60806040526004361061004a5760003560e01c8063273884bd1461004f5780633ccfd60b146100665780638da5cb5b1461007d578063a9059cbb146100a8578063d0e30db0146100d1575b600080fd5b34801561005b57600080fd5b506100646100db565b005b34801561007257600080fd5b5061007b6100dd565b005b34801561008957600080fd5b506100926101b3565b60405161009f919061035a565b60405180910390f35b3480156100b457600080fd5b506100cf60048036038101906100ca91906102b4565b6101d7565b005b6100d9610288565b005b565b600047905060008060009054906101000a900473ffffffffffffffffffffffffffffffffffffffff1673ffffffffffffffffffffffffffffffffffffffff168260405161012990610345565b60006040518083038185875af1925050503d8060008114610166576040519150601f19603f3d011682016040523d82523d6000602084013e61016b565b606091505b50509050806101af576040517f08c379a00000000000000000000000000000000000000000000000000000000081526004016101a690610375565b60405180910390fd5b5050565b60008054906101000a900473ffffffffffffffffffffffffffffffffffffffff1681565b60008273ffffffffffffffffffffffffffffffffffffffff16826040516101fd90610345565b60006040518083038185875af1925050503d806000811461023a576040519150601f19603f3d011682016040523d82523d6000602084013e61023f565b606091505b5050905080610283576040517f08c379a000000000000000000000000000000000000000000000000000000000815260040161027a90610375565b60405180910390fd5b505050565b565b60008135905061029981610419565b92915050565b6000813590506102ae81610430565b92915050565b600080604083850312156102c757600080fd5b60006102d58582860161028a565b92505060206102e68582860161029f565b9150509250929050565b6102f9816103b1565b82525050565b600061030c6014836103a0565b9150610317826103ed565b602082019050919050565b600061032f600083610395565b915061033a82610416565b600082019050919050565b600061035082610322565b9150819050919050565b600060208201905061036f60008301846102f0565b92915050565b6000602082019050818103600083015261038e816102ff565b9050919050565b600081905092915050565b600082825260208201905092915050565b60006103bc826103c3565b9050919050565b600073ffffffffffffffffffffffffffffffffffffffff82169050919050565b6000819050919050565b7f4661696c656420746f2073656e64204574686572000000000000000000000000600082015250565b50565b610422816103b1565b811461042d57600080fd5b50565b610439816103e3565b811461044457600080fd5b5056fea2646970667358221220784f1008c66af89448f8b7f42a269a1c689c2a0375d22ba6f2f3d049d413724e64736f6c63430008040033",
  "immutableReferences": {},
  "source": "// SPDX-License-Identifier: MIT\r\npragma solidity 0.8.4;\r\n\r\ncontract Payable {\r\n    // payable address can receive Ether.\r\n\r\n    address payable public owner;\r\n\r\n    //payable constructor can receive Ether\r\n    constructor() payable {\r\n        owner = payable(msg.sender);\r\n    }\r\n\r\n    //Function to deposit Ether into this contract\r\n    //call this function along with some ETH\r\n    // The balance of this contract will be automaticallly updated.\r\n    function deposit() public payable {}\r\n\r\n    // call this function along with some ether.\r\n    // the funcion will throw an errpr since the function is not payable.\r\n    function notPayable() public {}\r\n\r\n    // function to wuthdraw all the Ether from this contract.\r\n    function withdraw() public {\r\n        // get the amount of Ether from this contract.\r\n        uint256 amount = address(this).balance;\r\n\r\n        // send all the Ether to Owner\r\n        //Owner can receive Ether since the address of owner is payable\r\n\r\n        (bool success, ) = owner.call{value: amount}(\"\");\r\n        require(success, \"Failed to send Ether\");\r\n    }\r\n\r\n    // function to transfer Ether from this contract to address from input\r\n\r\n    function transfer(address payable _to, uint256 _amount) public {\r\n        // Note that \"to\" is declared as payable\r\n        (bool success, ) = _to.call{value: _amount}(\"\");\r\n        require(success, \"Failed to send Ether\");\r\n    }\r\n}\r\n",
  "sourcePath": "C:/Users/kelche codes/desktop/soliditybyexample/contracts/Payable.sol",
  "compiler": {
    "name": "solc",
    "version": "0.8.4+commit.c7e474f2.Emscripten.clang"
  },
  "schemaVersion": "3.3.4",
  "updatedAt": "2021-05-04T11:22:39.126Z",
  "networkType": "ethereum",
  "devdoc": {
    "kind": "dev",
    "methods": {},
    "version": 1
  },
  "userdoc": {
    "kind": "user",
    "methods": {},
    "version": 1
  }
}