{
  "contractName": "receiver",
  "abi": [
    {
      "anonymous": false,
      "inputs": [
        {
          "indexed": false,
          "internalType": "address",
          "name": "caller",
          "type": "address"
        },
        {
          "indexed": false,
          "internalType": "uint256",
          "name": "amount",
          "type": "uint256"
        },
        {
          "indexed": false,
          "internalType": "string",
          "name": "message",
          "type": "string"
        }
      ],
      "name": "Received",
      "type": "event"
    },
    {
      "stateMutability": "payable",
      "type": "receive"
    },
    {
      "inputs": [
        {
          "internalType": "string",
          "name": "_message",
          "type": "string"
        },
        {
          "internalType": "uint256",
          "name": "_x",
          "type": "uint256"
        }
      ],
      "name": "foo",
      "outputs": [
        {
          "internalType": "uint256",
          "name": "",
          "type": "uint256"
        }
      ],
      "stateMutability": "payable",
      "type": "function"
    }
  ],
  "bytecode": "0x608060405234801561001057600080fd5b50610525806100206000396000f3fe6080604052600436106100225760003560e01c806324ccab8f1461006757610062565b36610062577f59e04c3f0d44b7caf6e8ef854b61d9a51cf1960d7a88ff6356cc5e946b4b58323334604051610058929190610272565b60405180910390a1005b600080fd5b610081600480360381019061007c9190610166565b610097565b60405161008e91906102ae565b60405180910390f35b60007f59e04c3f0d44b7caf6e8ef854b61d9a51cf1960d7a88ff6356cc5e946b4b58323334856040516100cc93929190610234565b60405180910390a16001826100e1919061033b565b905092915050565b60006100fc6100f7846102ee565b6102c9565b90508281526020810184848401111561011457600080fd5b61011f8482856103cd565b509392505050565b600082601f83011261013857600080fd5b81356101488482602086016100e9565b91505092915050565b600081359050610160816104d8565b92915050565b6000806040838503121561017957600080fd5b600083013567ffffffffffffffff81111561019357600080fd5b61019f85828601610127565b92505060206101b085828601610151565b9150509250929050565b6101c381610391565b82525050565b60006101d48261031f565b6101de818561032a565b93506101ee8185602086016103dc565b6101f78161049e565b840191505092915050565b600061020f60138361032a565b915061021a826104af565b602082019050919050565b61022e816103c3565b82525050565b600060608201905061024960008301866101ba565b6102566020830185610225565b818103604083015261026881846101c9565b9050949350505050565b600060608201905061028760008301856101ba565b6102946020830184610225565b81810360408301526102a581610202565b90509392505050565b60006020820190506102c36000830184610225565b92915050565b60006102d36102e4565b90506102df828261040f565b919050565b6000604051905090565b600067ffffffffffffffff8211156103095761030861046f565b5b6103128261049e565b9050602081019050919050565b600081519050919050565b600082825260208201905092915050565b6000610346826103c3565b9150610351836103c3565b9250827fffffffffffffffffffffffffffffffffffffffffffffffffffffffffffffffff0382111561038657610385610440565b5b828201905092915050565b600061039c826103a3565b9050919050565b600073ffffffffffffffffffffffffffffffffffffffff82169050919050565b6000819050919050565b82818337600083830152505050565b60005b838110156103fa5780820151818401526020810190506103df565b83811115610409576000848401525b50505050565b6104188261049e565b810181811067ffffffffffffffff821117156104375761043661046f565b5b80604052505050565b7f4e487b7100000000000000000000000000000000000000000000000000000000600052601160045260246000fd5b7f4e487b7100000000000000000000000000000000000000000000000000000000600052604160045260246000fd5b6000601f19601f8301169050919050565b7f46616c6c6261636b207761732063616c6c656400000000000000000000000000600082015250565b6104e1816103c3565b81146104ec57600080fd5b5056fea26469706673582212205e439038928d201d897f358e99a5965b9f8a112afa232b28aeb86c208aaf6a8e64736f6c63430008040033",
  "immutableReferences": {},
  "source": "// SPDX-License-Identifier: MIT\r\npragma solidity 0.8.4;\r\n\r\ncontract receiver {\r\n    event Received(address caller, uint256 amount, string message);\r\n\r\n    receive() external payable {\r\n        emit Received(msg.sender, msg.value, \"Fallback was called\");\r\n    }\r\n\r\n    function foo(string memory _message, uint256 _x)\r\n        public\r\n        payable\r\n        returns (uint256)\r\n    {\r\n        emit Received(msg.sender, msg.value, _message);\r\n        return _x + 1;\r\n    }\r\n}\r\n\r\ncontract Caller {\r\n    event Response(bool success, bytes data);\r\n\r\n    // Let's Imagine that contract Ba does not have source code for\r\n    // Contract A, but we do know the address of A and the function to call.\r\n    function testCallFoo(address payable _addr) public payable {\r\n        // You cab send ether and specify a custom gas amount\r\n\r\n        (bool success, bytes memory data) =\r\n            _addr.call{value: msg.value, gas: 5000}(\r\n                abi.encodeWithSignature(\"foo(string, uint256)\", \"call foo\", 123)\r\n            );\r\n        emit Response(success, data);\r\n    }\r\n\r\n    // Calling a function that does not exist trigggers the fallback function.\r\n    function testCallDoesNotEXist(address _addr) public {\r\n        (bool success, bytes memory data) =\r\n            _addr.call(abi.encodeWithSignature(\"doesNotExist()\"));\r\n        emit Response(success, data);\r\n    }\r\n}\r\n",
  "sourcePath": "C:/Users/kelche codes/desktop/soliditybyexample/contracts/Call.sol",
  "compiler": {
    "name": "solc",
    "version": "0.8.4+commit.c7e474f2.Emscripten.clang"
  },
  "schemaVersion": "3.3.4",
  "updatedAt": "2021-05-04T11:22:21.145Z",
  "devdoc": {
    "kind": "dev",
    "methods": {},
    "version": 1
  },
  "userdoc": {
    "kind": "user",
    "methods": {},
    "version": 1
  }
}