{
  "contractName": "SendToFallback",
  "abi": [
    {
      "inputs": [
        {
          "internalType": "address payable",
          "name": "_to",
          "type": "address"
        }
      ],
      "name": "transferToFalllback",
      "outputs": [],
      "stateMutability": "payable",
      "type": "function",
      "payable": true
    },
    {
      "inputs": [
        {
          "internalType": "address payable",
          "name": "_to",
          "type": "address"
        }
      ],
      "name": "callFallback",
      "outputs": [],
      "stateMutability": "payable",
      "type": "function",
      "payable": true
    }
  ],
  "bytecode": "0x608060405234801561001057600080fd5b506102e0806100206000396000f3fe6080604052600436106100295760003560e01c80636ba87a531461002e5780638934fe3b1461004a575b600080fd5b61004860048036038101906100439190610175565b610066565b005b610064600480360381019061005f9190610175565b610116565b005b60008173ffffffffffffffffffffffffffffffffffffffff163460405161008c906101e4565b60006040518083038185875af1925050503d80600081146100c9576040519150601f19603f3d011682016040523d82523d6000602084013e6100ce565b606091505b5050905080610112576040517f08c379a0000000000000000000000000000000000000000000000000000000008152600401610109906101f9565b60405180910390fd5b5050565b8073ffffffffffffffffffffffffffffffffffffffff166108fc349081150290604051600060405180830381858888f1935050505015801561015c573d6000803e3d6000fd5b5050565b60008135905061016f81610293565b92915050565b60006020828403121561018757600080fd5b600061019584828501610160565b91505092915050565b60006101ab601483610224565b91506101b682610267565b602082019050919050565b60006101ce600083610219565b91506101d982610290565b600082019050919050565b60006101ef826101c1565b9150819050919050565b600060208201905081810360008301526102128161019e565b9050919050565b600081905092915050565b600082825260208201905092915050565b600061024082610247565b9050919050565b600073ffffffffffffffffffffffffffffffffffffffff82169050919050565b7f4661696c656420746f2073656e64204574686572000000000000000000000000600082015250565b50565b61029c81610235565b81146102a757600080fd5b5056fea2646970667358221220d64076405ba74de95496f360517d146ff2dd8ef0f49c708468e6efd45cfdbf9664736f6c63430008040033",
  "immutableReferences": {},
  "source": "// SPDX-License-Identifier: MIT\r\n\r\npragma solidity 0.8.4;\r\n\r\ncontract Fallback {\r\n    event Log(uint256 gas);\r\n\r\n    //Fuction to receive Ether. msg.data must be empty\r\n    receive() external payable {}\r\n\r\n    // FAllBack function must be declared as external.\r\n    fallback() external payable {\r\n        // send/ transfer (fowards 2300 gas to this fallback function)\r\n        // call (fowards all of the gas)\r\n        emit Log(gasleft());\r\n    }\r\n\r\n    // Helper function to check the balance of this contract\r\n    function getBalance() public view returns (uint256) {\r\n        return address(this).balance;\r\n    }\r\n}\r\n\r\ncontract SendToFallback {\r\n    function transferToFalllback(address payable _to) public payable {\r\n        _to.transfer(msg.value);\r\n    }\r\n\r\n    function callFallback(address payable _to) public payable {\r\n        (bool sent, ) = _to.call{value: msg.value}(\"\");\r\n        require(sent, \"Failed to send Ether\");\r\n    }\r\n}\r\n",
  "sourcePath": "C:/Users/kelche codes/desktop/soliditybyexample/contracts/Fallback.sol",
  "compiler": {
    "name": "solc",
    "version": "0.8.4+commit.c7e474f2.Emscripten.clang"
  },
  "schemaVersion": "3.3.4",
  "updatedAt": "2021-05-04T11:22:39.140Z",
  "networkType": "ethereum",
  "devdoc": {
    "kind": "dev",
    "methods": {},
    "version": 1
  },
  "userdoc": {
    "kind": "user",
    "methods": {},
    "version": 1
  }
}