{
  "contractName": "SendEther",
  "abi": [
    {
      "inputs": [
        {
          "internalType": "address payable",
          "name": "_to",
          "type": "address"
        }
      ],
      "name": "sendVisTransfer",
      "outputs": [],
      "stateMutability": "payable",
      "type": "function",
      "payable": true
    },
    {
      "inputs": [
        {
          "internalType": "address payable",
          "name": "_to",
          "type": "address"
        }
      ],
      "name": "sendViaSend",
      "outputs": [],
      "stateMutability": "payable",
      "type": "function",
      "payable": true
    },
    {
      "inputs": [
        {
          "internalType": "address payable",
          "name": "_to",
          "type": "address"
        }
      ],
      "name": "sendViaCall",
      "outputs": [],
      "stateMutability": "payable",
      "type": "function",
      "payable": true
    }
  ],
  "bytecode": "0x608060405234801561001057600080fd5b506103f3806100206000396000f3fe6080604052600436106100345760003560e01c80632ad5fc021461003957806374be480614610055578063830c29ae14610071575b600080fd5b610053600480360381019061004e919061021c565b61008d565b005b61006f600480360381019061006a919061021c565b6100d7565b005b61008b6004803603810190610086919061021c565b610154565b005b8073ffffffffffffffffffffffffffffffffffffffff166108fc349081150290604051600060405180830381858888f193505050501580156100d3573d6000803e3d6000fd5b5050565b60008173ffffffffffffffffffffffffffffffffffffffff166108fc349081150290604051600060405180830381858888f19350505050905080610150576040517f08c379a0000000000000000000000000000000000000000000000000000000008152600401610147906102e3565b60405180910390fd5b5050565b6000808273ffffffffffffffffffffffffffffffffffffffff163460405161017b906102ae565b60006040518083038185875af1925050503d80600081146101b8576040519150601f19603f3d011682016040523d82523d6000602084013e6101bd565b606091505b509150915081610202576040517f08c379a00000000000000000000000000000000000000000000000000000000081526004016101f9906102c3565b60405180910390fd5b505050565b600081359050610216816103a6565b92915050565b60006020828403121561022e57600080fd5b600061023c84828501610207565b91505092915050565b600061025260148361030e565b915061025d82610351565b602082019050919050565b6000610275600083610303565b91506102808261037a565b600082019050919050565b600061029860148361030e565b91506102a38261037d565b602082019050919050565b60006102b982610268565b9150819050919050565b600060208201905081810360008301526102dc81610245565b9050919050565b600060208201905081810360008301526102fc8161028b565b9050919050565b600081905092915050565b600082825260208201905092915050565b600061032a82610331565b9050919050565b600073ffffffffffffffffffffffffffffffffffffffff82169050919050565b7f6661696c65642074702073656e64204574686572000000000000000000000000600082015250565b50565b7f6661696c656420746f2073656e64204574686572000000000000000000000000600082015250565b6103af8161031f565b81146103ba57600080fd5b5056fea2646970667358221220b6156a00a1c2d6134edaefeaf0f26585f1932b45c55991e7199273aa4d907a7364736f6c63430008040033",
  "immutableReferences": {},
  "source": "// SPDX-License-Identifier: MIT\r\n\r\npragma solidity 0.8.4;\r\n\r\ncontract SendEther {\r\n    function sendVisTransfer(address payable _to) public payable {\r\n        // this function is no longer recomended for sending Ehter\r\n        _to.transfer(msg.value);\r\n    }\r\n\r\n    function sendViaSend(address payable _to) public payable {\r\n        // send returns a boolean value indicating succes or failure.\r\n        // This function os not recomended for sending Ether.\r\n        bool sent = _to.send(msg.value);\r\n        require(sent, \"failed to send Ether\");\r\n    }\r\n\r\n    function sendViaCall(address payable _to) public payable {\r\n        // call returns a boolean value indicating success r failure.\r\n        //this is the current recomended method to use.\r\n        (bool sent, bytes memory data) = _to.call{value: msg.value}(\"\");\r\n        require(sent, \"failed tp send Ether\");\r\n    }\r\n}\r\n",
  "sourcePath": "C:/Users/kelche codes/desktop/SolidityByExample/contracts/SendEther.sol",
  "compiler": {
    "name": "solc",
    "version": "0.8.4+commit.c7e474f2.Emscripten.clang"
  },
  "schemaVersion": "3.3.4",
  "updatedAt": "2021-05-03T12:59:13.050Z",
  "networkType": "ethereum",
  "devdoc": {
    "kind": "dev",
    "methods": {},
    "version": 1
  },
  "userdoc": {
    "kind": "user",
    "methods": {},
    "version": 1
  }
}