{
  "contractName": "Todos",
  "abi": [
    {
      "inputs": [
        {
          "internalType": "uint256",
          "name": "",
          "type": "uint256"
        }
      ],
      "name": "todos",
      "outputs": [
        {
          "internalType": "string",
          "name": "text",
          "type": "string"
        },
        {
          "internalType": "bool",
          "name": "completed",
          "type": "bool"
        }
      ],
      "stateMutability": "view",
      "type": "function",
      "constant": true
    },
    {
      "inputs": [
        {
          "internalType": "string",
          "name": "_text",
          "type": "string"
        }
      ],
      "name": "create",
      "outputs": [],
      "stateMutability": "nonpayable",
      "type": "function"
    },
    {
      "inputs": [
        {
          "internalType": "uint256",
          "name": "_index",
          "type": "uint256"
        }
      ],
      "name": "get",
      "outputs": [
        {
          "internalType": "string",
          "name": "text",
          "type": "string"
        },
        {
          "internalType": "bool",
          "name": "completed",
          "type": "bool"
        }
      ],
      "stateMutability": "view",
      "type": "function",
      "constant": true
    },
    {
      "inputs": [
        {
          "internalType": "uint256",
          "name": "_index",
          "type": "uint256"
        },
        {
          "internalType": "string",
          "name": "_text",
          "type": "string"
        }
      ],
      "name": "update",
      "outputs": [],
      "stateMutability": "nonpayable",
      "type": "function"
    },
    {
      "inputs": [
        {
          "internalType": "uint256",
          "name": "_index",
          "type": "uint256"
        }
      ],
      "name": "toggleCompleted",
      "outputs": [],
      "stateMutability": "nonpayable",
      "type": "function"
    }
  ],
  "bytecode": "0x608060405234801561001057600080fd5b5061099b806100206000396000f3fe608060405234801561001057600080fd5b50600436106100575760003560e01c8063455f50241461005c5780639507d39a14610078578063b6a46b3b146100a9578063bc8bc2b4146100c5578063f745630f146100f6575b600080fd5b610076600480360381019061007191906106bd565b610112565b005b610092600480360381019061008d91906106bd565b61018f565b6040516100a0929190610782565b60405180910390f35b6100c360048036038101906100be919061067c565b61028a565b005b6100df60048036038101906100da91906106bd565b61040e565b6040516100ed929190610782565b60405180910390f35b610110600480360381019061010b91906106e6565b6104d7565b005b600080828154811061014d577f4e487b7100000000000000000000000000000000000000000000000000000000600052603260045260246000fd5b906000526020600020906002020190508060010160009054906101000a900460ff16158160010160006101000a81548160ff0219169083151502179055505050565b6060600080600084815481106101ce577f4e487b7100000000000000000000000000000000000000000000000000000000600052603260045260246000fd5b90600052602060002090600202019050806000018160010160009054906101000a900460ff168180546102009061087c565b80601f016020809104026020016040519081016040528092919081815260200182805461022c9061087c565b80156102795780601f1061024e57610100808354040283529160200191610279565b820191906000526020600020905b81548152906001019060200180831161025c57829003601f168201915b505050505091509250925050915091565b6000604051806040016040528083815260200160001515815250908060018154018082558091505060019003906000526020600020906002020160009091909190915060008201518160000190805190602001906102e9929190610540565b5060208201518160010160006101000a81548160ff021916908315150217905550505060006040518060400160405280838152602001600015158152509080600181540180825580915050600190039060005260206000209060020201600090919091909150600082015181600001908051906020019061036b929190610540565b5060208201518160010160006101000a81548160ff02191690831515021790555050506103966105c6565b818160000181905250600081908060018154018082558091505060019003906000526020600020906002020160009091909190915060008201518160000190805190602001906103e7929190610540565b5060208201518160010160006101000a81548160ff02191690831515021790555050505050565b6000818154811061041e57600080fd5b90600052602060002090600202016000915090508060000180546104419061087c565b80601f016020809104026020016040519081016040528092919081815260200182805461046d9061087c565b80156104ba5780601f1061048f576101008083540402835291602001916104ba565b820191906000526020600020905b81548152906001019060200180831161049d57829003601f168201915b5050505050908060010160009054906101000a900460ff16905082565b6000808381548110610512577f4e487b7100000000000000000000000000000000000000000000000000000000600052603260045260246000fd5b906000526020600020906002020190508181600001908051906020019061053a929190610540565b50505050565b82805461054c9061087c565b90600052602060002090601f01602090048101928261056e57600085556105b5565b82601f1061058757805160ff19168380011785556105b5565b828001600101855582156105b5579182015b828111156105b4578251825591602001919060010190610599565b5b5090506105c291906105e2565b5090565b6040518060400160405280606081526020016000151581525090565b5b808211156105fb5760008160009055506001016105e3565b5090565b600061061261060d846107d7565b6107b2565b90508281526020810184848401111561062a57600080fd5b61063584828561083a565b509392505050565b600082601f83011261064e57600080fd5b813561065e8482602086016105ff565b91505092915050565b6000813590506106768161094e565b92915050565b60006020828403121561068e57600080fd5b600082013567ffffffffffffffff8111156106a857600080fd5b6106b48482850161063d565b91505092915050565b6000602082840312156106cf57600080fd5b60006106dd84828501610667565b91505092915050565b600080604083850312156106f957600080fd5b600061070785828601610667565b925050602083013567ffffffffffffffff81111561072457600080fd5b6107308582860161063d565b9150509250929050565b61074381610824565b82525050565b600061075482610808565b61075e8185610813565b935061076e818560208601610849565b6107778161093d565b840191505092915050565b6000604082019050818103600083015261079c8185610749565b90506107ab602083018461073a565b9392505050565b60006107bc6107cd565b90506107c882826108ae565b919050565b6000604051905090565b600067ffffffffffffffff8211156107f2576107f161090e565b5b6107fb8261093d565b9050602081019050919050565b600081519050919050565b600082825260208201905092915050565b60008115159050919050565b6000819050919050565b82818337600083830152505050565b60005b8381101561086757808201518184015260208101905061084c565b83811115610876576000848401525b50505050565b6000600282049050600182168061089457607f821691505b602082108114156108a8576108a76108df565b5b50919050565b6108b78261093d565b810181811067ffffffffffffffff821117156108d6576108d561090e565b5b80604052505050565b7f4e487b7100000000000000000000000000000000000000000000000000000000600052602260045260246000fd5b7f4e487b7100000000000000000000000000000000000000000000000000000000600052604160045260246000fd5b6000601f19601f8301169050919050565b61095781610830565b811461096257600080fd5b5056fea264697066735822122005e242d8bafdbe0272b7702fb188e111556e4349a2d63f497824710808cc98e564736f6c63430008040033",
  "immutableReferences": {},
  "source": "//SPDX-License-Identifier: GPL-3.0\r\n\r\npragma solidity ^0.8.4;\r\n\r\ncontract Todos {\r\n    struct Todo {\r\n        string text;\r\n        bool completed;\r\n    }\r\n\r\n    // an array of 'Todo' structs\r\n    Todo[] public todos;\r\n\r\n    function create(string memory _text) public {\r\n        // 3 ways to intitialize a struct\r\n        // - calling it like afunction\r\n\r\n        todos.push(Todo(_text, false));\r\n\r\n        //key value mapping\r\n        todos.push(Todo({text: _text, completed: false}));\r\n\r\n        // Initialize an empty and then update it\r\n        Todo memory todo;\r\n        todo.text = _text;\r\n        // todo.completed initializes to false\r\n\r\n        todos.push(todo);\r\n    }\r\n\r\n    //Solidity automatically creted a getter for 'todos, so\r\n    // you don't actually need this function\r\n\r\n    function get(uint256 _index)\r\n        public\r\n        view\r\n        returns (string memory text, bool completed)\r\n    {\r\n        Todo storage todo = todos[_index];\r\n        return (todo.text, todo.completed);\r\n    }\r\n\r\n    //update text\r\n    function update(uint256 _index, string memory _text) public {\r\n        Todo storage todo = todos[_index];\r\n        todo.text = _text;\r\n    }\r\n\r\n    // update completed\r\n    function toggleCompleted(uint256 _index) public {\r\n        Todo storage todo = todos[_index];\r\n        todo.completed = !todo.completed;\r\n    }\r\n}\r\n",
  "sourcePath": "C:/Users/kelche codes/desktop/SolidityByExample/contracts/Structs.sol",
  "compiler": {
    "name": "solc",
    "version": "0.8.4+commit.c7e474f2.Emscripten.clang"
  },
  "schemaVersion": "3.3.4",
  "updatedAt": "2021-05-02T13:27:46.278Z",
  "networkType": "ethereum",
  "devdoc": {
    "kind": "dev",
    "methods": {},
    "version": 1
  },
  "userdoc": {
    "kind": "user",
    "methods": {},
    "version": 1
  }
}