{
  "contractName": "UniswapExample",
  "abi": [
    {
      "inputs": [],
      "name": "getTokenReserves",
      "outputs": [
        {
          "internalType": "uint256",
          "name": "",
          "type": "uint256"
        },
        {
          "internalType": "uint256",
          "name": "",
          "type": "uint256"
        }
      ],
      "stateMutability": "view",
      "type": "function",
      "constant": true
    }
  ],
  "bytecode": "0x608060405273d96d8a6ea6ff641ca272ba4efb955ae6704d79946000806101000a81548173ffffffffffffffffffffffffffffffffffffffff021916908373ffffffffffffffffffffffffffffffffffffffff1602179055507363442ead99df0cb6d7df300bd3feb1045fbf6f6f600160006101000a81548173ffffffffffffffffffffffffffffffffffffffff021916908373ffffffffffffffffffffffffffffffffffffffff16021790555073e883f55ada54579022fb9b255c3e89b591cb8c7c600260006101000a81548173ffffffffffffffffffffffffffffffffffffffff021916908373ffffffffffffffffffffffffffffffffffffffff16021790555034801561010e57600080fd5b506104018061011e6000396000f3fe608060405234801561001057600080fd5b506004361061002b5760003560e01c8063b9cf500514610030575b600080fd5b61003861004f565b6040516100469291906102f7565b60405180910390f35b60008060008060009054906101000a900473ffffffffffffffffffffffffffffffffffffffff1673ffffffffffffffffffffffffffffffffffffffff1663e6a43905600160009054906101000a900473ffffffffffffffffffffffffffffffffffffffff16600260009054906101000a900473ffffffffffffffffffffffffffffffffffffffff166040518363ffffffff1660e01b81526004016100f49291906102ce565b60206040518083038186803b15801561010c57600080fd5b505afa158015610120573d6000803e3d6000fd5b505050506040513d601f19601f820116820180604052508101906101449190610238565b90506000808273ffffffffffffffffffffffffffffffffffffffff16630902f1ac6040518163ffffffff1660e01b815260040160606040518083038186803b15801561018f57600080fd5b505afa1580156101a3573d6000803e3d6000fd5b505050506040513d601f19601f820116820180604052508101906101c79190610261565b506dffffffffffffffffffffffffffff1691506dffffffffffffffffffffffffffff1691508181945094505050509091565b60008151905061020881610386565b92915050565b60008151905061021d8161039d565b92915050565b600081519050610232816103b4565b92915050565b60006020828403121561024a57600080fd5b6000610258848285016101f9565b91505092915050565b60008060006060848603121561027657600080fd5b60006102848682870161020e565b93505060206102958682870161020e565b92505060406102a686828701610223565b9150509250925092565b6102b981610320565b82525050565b6102c88161036c565b82525050565b60006040820190506102e360008301856102b0565b6102f060208301846102b0565b9392505050565b600060408201905061030c60008301856102bf565b61031960208301846102bf565b9392505050565b600061032b8261034c565b9050919050565b60006dffffffffffffffffffffffffffff82169050919050565b600073ffffffffffffffffffffffffffffffffffffffff82169050919050565b6000819050919050565b600063ffffffff82169050919050565b61038f81610320565b811461039a57600080fd5b50565b6103a681610332565b81146103b157600080fd5b50565b6103bd81610376565b81146103c857600080fd5b5056fea264697066735822122071afef1266b615e5421923a55099fed4d500d50ffa6326e410171f0c988bdfce64736f6c63430008040033",
  "immutableReferences": {},
  "source": "// SPDX-License-Identifier: GPL-3.0\r\n\r\npragma solidity 0.8.4;\r\n\r\ncontract Counter {\r\n    uint256 public count;\r\n\r\n    function inrement() external {\r\n        count++;\r\n    }\r\n}\r\n\r\ninterface Icounter {\r\n    function count() external view returns (uint256);\r\n\r\n    function increment() external;\r\n}\r\n\r\ncontract MyContract {\r\n    function incrementCounter(address _counter) external {\r\n        Icounter(_counter).increment();\r\n    }\r\n\r\n    function getCount(address _counter) external view returns (uint256) {\r\n        return Icounter(_counter).count();\r\n    }\r\n}\r\n\r\n//Uniswap Example\r\n\r\ninterface UniswapV2Factory {\r\n    function getPair(address tokenA, address tokenB)\r\n        external\r\n        view\r\n        returns (address pair);\r\n}\r\n\r\ninterface UniswapV2Pair {\r\n    function getReserves()\r\n        external\r\n        view\r\n        returns (\r\n            uint112 reserve0,\r\n            uint112 reserve1,\r\n            uint32 blockTimestampLast\r\n        );\r\n}\r\n\r\ncontract UniswapExample {\r\n    address private factory = 0xd96d8a6eA6Ff641Ca272bA4efb955aE6704d7994;\r\n    address private dai = 0x63442EaD99Df0Cb6d7Df300bd3fEB1045fBf6F6F;\r\n    address private weth = 0xE883F55adA54579022Fb9b255c3E89B591cB8C7c;\r\n\r\n    function getTokenReserves() external view returns (uint256, uint256) {\r\n        address pair = UniswapV2Factory(factory).getPair(dai, weth);\r\n        (uint256 reserve0, uint256 reserve1, ) =\r\n            UniswapV2Pair(pair).getReserves();\r\n        return (reserve0, reserve1);\r\n    }\r\n}\r\n",
  "sourcePath": "C:/Users/kelche codes/desktop/SolidityByExample/contracts/Interface.sol",
  "compiler": {
    "name": "solc",
    "version": "0.8.4+commit.c7e474f2.Emscripten.clang"
  },
  "schemaVersion": "3.3.4",
  "updatedAt": "2021-05-02T13:02:44.177Z",
  "networkType": "ethereum",
  "devdoc": {
    "kind": "dev",
    "methods": {},
    "version": 1
  },
  "userdoc": {
    "kind": "user",
    "methods": {},
    "version": 1
  }
}